{
  "_format": "hh-sol-artifact-1",
  "contractName": "Ticket",
  "sourceName": "contracts/Ticket.sol",
  "abi": [
    {
      "inputs": [],
      "stateMutability": "nonpayable",
      "type": "constructor"
    },
    {
      "anonymous": false,
      "inputs": [
        {
          "indexed": true,
          "internalType": "address",
          "name": "owner",
          "type": "address"
        },
        {
          "indexed": true,
          "internalType": "address",
          "name": "approved",
          "type": "address"
        },
        {
          "indexed": true,
          "internalType": "uint256",
          "name": "tokenId",
          "type": "uint256"
        }
      ],
      "name": "Approval",
      "type": "event"
    },
    {
      "anonymous": false,
      "inputs": [
        {
          "indexed": true,
          "internalType": "address",
          "name": "owner",
          "type": "address"
        },
        {
          "indexed": true,
          "internalType": "address",
          "name": "operator",
          "type": "address"
        },
        {
          "indexed": false,
          "internalType": "bool",
          "name": "approved",
          "type": "bool"
        }
      ],
      "name": "ApprovalForAll",
      "type": "event"
    },
    {
      "anonymous": false,
      "inputs": [
        {
          "indexed": true,
          "internalType": "address",
          "name": "previousOwner",
          "type": "address"
        },
        {
          "indexed": true,
          "internalType": "address",
          "name": "newOwner",
          "type": "address"
        }
      ],
      "name": "OwnershipTransferred",
      "type": "event"
    },
    {
      "anonymous": false,
      "inputs": [
        {
          "indexed": true,
          "internalType": "address",
          "name": "from",
          "type": "address"
        },
        {
          "indexed": true,
          "internalType": "address",
          "name": "to",
          "type": "address"
        },
        {
          "indexed": true,
          "internalType": "uint256",
          "name": "tokenId",
          "type": "uint256"
        }
      ],
      "name": "Transfer",
      "type": "event"
    },
    {
      "anonymous": false,
      "inputs": [
        {
          "indexed": false,
          "internalType": "uint256",
          "name": "tokenId",
          "type": "uint256"
        }
      ],
      "name": "createNFTsuccessfully",
      "type": "event"
    },
    {
      "inputs": [
        {
          "internalType": "address",
          "name": "to",
          "type": "address"
        },
        {
          "internalType": "uint256",
          "name": "tokenId",
          "type": "uint256"
        }
      ],
      "name": "approve",
      "outputs": [],
      "stateMutability": "nonpayable",
      "type": "function"
    },
    {
      "inputs": [
        {
          "internalType": "address",
          "name": "owner",
          "type": "address"
        }
      ],
      "name": "balanceOf",
      "outputs": [
        {
          "internalType": "uint256",
          "name": "",
          "type": "uint256"
        }
      ],
      "stateMutability": "view",
      "type": "function"
    },
    {
      "inputs": [
        {
          "internalType": "uint256",
          "name": "tokenId",
          "type": "uint256"
        }
      ],
      "name": "burn",
      "outputs": [],
      "stateMutability": "nonpayable",
      "type": "function"
    },
    {
      "inputs": [
        {
          "internalType": "string",
          "name": "eventName",
          "type": "string"
        },
        {
          "internalType": "uint256",
          "name": "date",
          "type": "uint256"
        },
        {
          "internalType": "uint256",
          "name": "price",
          "type": "uint256"
        },
        {
          "internalType": "string",
          "name": "venue",
          "type": "string"
        },
        {
          "internalType": "uint256",
          "name": "quantity",
          "type": "uint256"
        }
      ],
      "name": "createNFT",
      "outputs": [],
      "stateMutability": "payable",
      "type": "function"
    },
    {
      "inputs": [
        {
          "internalType": "uint256",
          "name": "tokenId",
          "type": "uint256"
        }
      ],
      "name": "getApproved",
      "outputs": [
        {
          "internalType": "address",
          "name": "",
          "type": "address"
        }
      ],
      "stateMutability": "view",
      "type": "function"
    },
    {
      "inputs": [
        {
          "internalType": "uint256",
          "name": "tokenId",
          "type": "uint256"
        }
      ],
      "name": "getNFT",
      "outputs": [
        {
          "components": [
            {
              "internalType": "string",
              "name": "eventName",
              "type": "string"
            },
            {
              "internalType": "uint256",
              "name": "date",
              "type": "uint256"
            },
            {
              "internalType": "uint256",
              "name": "price",
              "type": "uint256"
            },
            {
              "internalType": "string",
              "name": "venue",
              "type": "string"
            },
            {
              "internalType": "uint256",
              "name": "quantity",
              "type": "uint256"
            }
          ],
          "internalType": "struct Ticket.EventTicket",
          "name": "",
          "type": "tuple"
        }
      ],
      "stateMutability": "view",
      "type": "function"
    },
    {
      "inputs": [
        {
          "internalType": "address",
          "name": "owner",
          "type": "address"
        },
        {
          "internalType": "address",
          "name": "operator",
          "type": "address"
        }
      ],
      "name": "isApprovedForAll",
      "outputs": [
        {
          "internalType": "bool",
          "name": "",
          "type": "bool"
        }
      ],
      "stateMutability": "view",
      "type": "function"
    },
    {
      "inputs": [],
      "name": "name",
      "outputs": [
        {
          "internalType": "string",
          "name": "",
          "type": "string"
        }
      ],
      "stateMutability": "view",
      "type": "function"
    },
    {
      "inputs": [],
      "name": "owner",
      "outputs": [
        {
          "internalType": "address",
          "name": "",
          "type": "address"
        }
      ],
      "stateMutability": "view",
      "type": "function"
    },
    {
      "inputs": [
        {
          "internalType": "uint256",
          "name": "tokenId",
          "type": "uint256"
        }
      ],
      "name": "ownerOf",
      "outputs": [
        {
          "internalType": "address",
          "name": "",
          "type": "address"
        }
      ],
      "stateMutability": "view",
      "type": "function"
    },
    {
      "inputs": [],
      "name": "renounceOwnership",
      "outputs": [],
      "stateMutability": "nonpayable",
      "type": "function"
    },
    {
      "inputs": [
        {
          "internalType": "address",
          "name": "from",
          "type": "address"
        },
        {
          "internalType": "address",
          "name": "to",
          "type": "address"
        },
        {
          "internalType": "uint256",
          "name": "tokenId",
          "type": "uint256"
        }
      ],
      "name": "safeTransferFrom",
      "outputs": [],
      "stateMutability": "nonpayable",
      "type": "function"
    },
    {
      "inputs": [
        {
          "internalType": "address",
          "name": "from",
          "type": "address"
        },
        {
          "internalType": "address",
          "name": "to",
          "type": "address"
        },
        {
          "internalType": "uint256",
          "name": "tokenId",
          "type": "uint256"
        },
        {
          "internalType": "bytes",
          "name": "data",
          "type": "bytes"
        }
      ],
      "name": "safeTransferFrom",
      "outputs": [],
      "stateMutability": "nonpayable",
      "type": "function"
    },
    {
      "inputs": [
        {
          "internalType": "address",
          "name": "operator",
          "type": "address"
        },
        {
          "internalType": "bool",
          "name": "approved",
          "type": "bool"
        }
      ],
      "name": "setApprovalForAll",
      "outputs": [],
      "stateMutability": "nonpayable",
      "type": "function"
    },
    {
      "inputs": [
        {
          "internalType": "bytes4",
          "name": "interfaceId",
          "type": "bytes4"
        }
      ],
      "name": "supportsInterface",
      "outputs": [
        {
          "internalType": "bool",
          "name": "",
          "type": "bool"
        }
      ],
      "stateMutability": "view",
      "type": "function"
    },
    {
      "inputs": [],
      "name": "symbol",
      "outputs": [
        {
          "internalType": "string",
          "name": "",
          "type": "string"
        }
      ],
      "stateMutability": "view",
      "type": "function"
    },
    {
      "inputs": [
        {
          "internalType": "uint256",
          "name": "tokenId",
          "type": "uint256"
        }
      ],
      "name": "tokenURI",
      "outputs": [
        {
          "internalType": "string",
          "name": "",
          "type": "string"
        }
      ],
      "stateMutability": "view",
      "type": "function"
    },
    {
      "inputs": [
        {
          "internalType": "address",
          "name": "from",
          "type": "address"
        },
        {
          "internalType": "address",
          "name": "to",
          "type": "address"
        },
        {
          "internalType": "uint256",
          "name": "tokenId",
          "type": "uint256"
        }
      ],
      "name": "transferFrom",
      "outputs": [],
      "stateMutability": "nonpayable",
      "type": "function"
    },
    {
      "inputs": [
        {
          "internalType": "address",
          "name": "newOwner",
          "type": "address"
        }
      ],
      "name": "transferOwnership",
      "outputs": [],
      "stateMutability": "nonpayable",
      "type": "function"
    },
    {
      "inputs": [],
      "name": "withdrawl",
      "outputs": [],
      "stateMutability": "nonpayable",
      "type": "function"
    }
  ],
  "bytecode": "0x60806040523480156200001157600080fd5b506040518060400160405280600681526020017f5469636b657400000000000000000000000000000000000000000000000000008152506040518060400160405280600281526020017f544b00000000000000000000000000000000000000000000000000000000000081525081600090816200008f919062000412565b508060019081620000a1919062000412565b505050620000c4620000b8620000ca60201b60201c565b620000d260201b60201c565b620004f9565b600033905090565b6000600660009054906101000a900473ffffffffffffffffffffffffffffffffffffffff16905081600660006101000a81548173ffffffffffffffffffffffffffffffffffffffff021916908373ffffffffffffffffffffffffffffffffffffffff1602179055508173ffffffffffffffffffffffffffffffffffffffff168173ffffffffffffffffffffffffffffffffffffffff167f8be0079c531659141344cd1fd0a4f28419497f9722a3daafe3b4186f6b6457e060405160405180910390a35050565b600081519050919050565b7f4e487b7100000000000000000000000000000000000000000000000000000000600052604160045260246000fd5b7f4e487b7100000000000000000000000000000000000000000000000000000000600052602260045260246000fd5b600060028204905060018216806200021a57607f821691505b60208210810362000230576200022f620001d2565b5b50919050565b60008190508160005260206000209050919050565b60006020601f8301049050919050565b600082821b905092915050565b6000600883026200029a7fffffffffffffffffffffffffffffffffffffffffffffffffffffffffffffffff826200025b565b620002a686836200025b565b95508019841693508086168417925050509392505050565b6000819050919050565b6000819050919050565b6000620002f3620002ed620002e784620002be565b620002c8565b620002be565b9050919050565b6000819050919050565b6200030f83620002d2565b620003276200031e82620002fa565b84845462000268565b825550505050565b600090565b6200033e6200032f565b6200034b81848462000304565b505050565b5b8181101562000373576200036760008262000334565b60018101905062000351565b5050565b601f821115620003c2576200038c8162000236565b62000397846200024b565b81016020851015620003a7578190505b620003bf620003b6856200024b565b83018262000350565b50505b505050565b600082821c905092915050565b6000620003e760001984600802620003c7565b1980831691505092915050565b6000620004028383620003d4565b9150826002028217905092915050565b6200041d8262000198565b67ffffffffffffffff811115620004395762000438620001a3565b5b62000445825462000201565b6200045282828562000377565b600060209050601f8311600181146200048a576000841562000475578287015190505b620004818582620003f4565b865550620004f1565b601f1984166200049a8662000236565b60005b82811015620004c4578489015182556001820191506020850194506020810190506200049d565b86831015620004e45784890151620004e0601f891682620003d4565b8355505b6001600288020188555050505b505050505050565b61376880620005096000396000f3fe60806040526004361061011f5760003560e01c80636352211e116100a0578063a22cb46511610064578063a22cb465146103c4578063b88d4fde146103ed578063c87b56dd14610416578063e985e9c514610453578063f2fde38b146104905761011f565b80636352211e146102dd57806370a082311461031a578063715018a6146103575780638da5cb5b1461036e57806395d89b41146103995761011f565b80633aedfb8b116100e75780633aedfb8b1461021b57806342842e0e1461023257806342966c681461025b578063576f7ea714610284578063601d8d1b146102c15761011f565b806301ffc9a71461012457806306fdde0314610161578063081812fc1461018c578063095ea7b3146101c957806323b872dd146101f2575b600080fd5b34801561013057600080fd5b5061014b60048036038101906101469190612259565b6104b9565b60405161015891906122a1565b60405180910390f35b34801561016d57600080fd5b5061017661059b565b604051610183919061234c565b60405180910390f35b34801561019857600080fd5b506101b360048036038101906101ae91906123a4565b61062d565b6040516101c09190612412565b60405180910390f35b3480156101d557600080fd5b506101f060048036038101906101eb9190612459565b610673565b005b3480156101fe57600080fd5b5061021960048036038101906102149190612499565b61078a565b005b34801561022757600080fd5b506102306107ea565b005b34801561023e57600080fd5b5061025960048036038101906102549190612499565b6108a8565b005b34801561026757600080fd5b50610282600480360381019061027d91906123a4565b6108c8565b005b34801561029057600080fd5b506102ab60048036038101906102a691906123a4565b610924565b6040516102b891906125c2565b60405180910390f35b6102db60048036038101906102d69190612719565b610adb565b005b3480156102e957600080fd5b5061030460048036038101906102ff91906123a4565b610c16565b6040516103119190612412565b60405180910390f35b34801561032657600080fd5b50610341600480360381019061033c91906127cc565b610c9c565b60405161034e9190612808565b60405180910390f35b34801561036357600080fd5b5061036c610d53565b005b34801561037a57600080fd5b50610383610d67565b6040516103909190612412565b60405180910390f35b3480156103a557600080fd5b506103ae610d91565b6040516103bb919061234c565b60405180910390f35b3480156103d057600080fd5b506103eb60048036038101906103e6919061284f565b610e23565b005b3480156103f957600080fd5b50610414600480360381019061040f9190612930565b610e39565b005b34801561042257600080fd5b5061043d600480360381019061043891906123a4565b610e9b565b60405161044a919061234c565b60405180910390f35b34801561045f57600080fd5b5061047a600480360381019061047591906129b3565b610f03565b60405161048791906122a1565b60405180910390f35b34801561049c57600080fd5b506104b760048036038101906104b291906127cc565b610f97565b005b60007f80ac58cd000000000000000000000000000000000000000000000000000000007bffffffffffffffffffffffffffffffffffffffffffffffffffffffff1916827bffffffffffffffffffffffffffffffffffffffffffffffffffffffff1916148061058457507f5b5e139f000000000000000000000000000000000000000000000000000000007bffffffffffffffffffffffffffffffffffffffffffffffffffffffff1916827bffffffffffffffffffffffffffffffffffffffffffffffffffffffff1916145b8061059457506105938261101a565b5b9050919050565b6060600080546105aa90612a22565b80601f01602080910402602001604051908101604052809291908181526020018280546105d690612a22565b80156106235780601f106105f857610100808354040283529160200191610623565b820191906000526020600020905b81548152906001019060200180831161060657829003601f168201915b5050505050905090565b600061063882611084565b6004600083815260200190815260200160002060009054906101000a900473ffffffffffffffffffffffffffffffffffffffff169050919050565b600061067e82610c16565b90508073ffffffffffffffffffffffffffffffffffffffff168373ffffffffffffffffffffffffffffffffffffffff16036106ee576040517f08c379a00000000000000000000000000000000000000000000000000000000081526004016106e590612ac5565b60405180910390fd5b8073ffffffffffffffffffffffffffffffffffffffff1661070d6110cf565b73ffffffffffffffffffffffffffffffffffffffff16148061073c575061073b816107366110cf565b610f03565b5b61077b576040517f08c379a000000000000000000000000000000000000000000000000000000000815260040161077290612b57565b60405180910390fd5b61078583836110d7565b505050565b61079b6107956110cf565b82611190565b6107da576040517f08c379a00000000000000000000000000000000000000000000000000000000081526004016107d190612be9565b60405180910390fd5b6107e5838383611225565b505050565b6107f2610d67565b73ffffffffffffffffffffffffffffffffffffffff163373ffffffffffffffffffffffffffffffffffffffff161461085f576040517f08c379a000000000000000000000000000000000000000000000000000000000815260040161085690612c7b565b60405180910390fd5b3373ffffffffffffffffffffffffffffffffffffffff166108fc479081150290604051600060405180830381858888f193505050501580156108a5573d6000803e3d6000fd5b50565b6108c383838360405180602001604052806000815250610e39565b505050565b6108d96108d36110cf565b82611190565b610918576040517f08c379a000000000000000000000000000000000000000000000000000000000815260040161090f90612be9565b60405180910390fd5b6109218161151e565b50565b61092c6121be565b6109358261166c565b610974576040517f08c379a000000000000000000000000000000000000000000000000000000000815260040161096b90612ce7565b60405180910390fd5b600860008381526020019081526020016000206040518060a00160405290816000820180546109a290612a22565b80601f01602080910402602001604051908101604052809291908181526020018280546109ce90612a22565b8015610a1b5780601f106109f057610100808354040283529160200191610a1b565b820191906000526020600020905b8154815290600101906020018083116109fe57829003601f168201915b505050505081526020016001820154815260200160028201548152602001600382018054610a4890612a22565b80601f0160208091040260200160405190810160405280929190818152602001828054610a7490612a22565b8015610ac15780601f10610a9657610100808354040283529160200191610ac1565b820191906000526020600020905b815481529060010190602001808311610aa457829003601f168201915b505050505081526020016004820154815250509050919050565b8083610ae79190612d36565b3414610b28576040517f08c379a0000000000000000000000000000000000000000000000000000000008152600401610b1f90612dc4565b60405180910390fd5b6000610b3460076116ad565b9050610b4060076116bb565b610b4a33826116d1565b60006040518060a0016040528088815260200187815260200186815260200185815260200184815250905080600860008481526020019081526020016000206000820151816000019081610b9e9190612f90565b5060208201518160010155604082015181600201556060820151816003019081610bc89190612f90565b50608082015181600401559050507f55d1257e59c5ae4496b2994f9273c283a7340a96a50f2c39ac1602b44d37c71082604051610c059190612808565b60405180910390a150505050505050565b600080610c22836116ef565b9050600073ffffffffffffffffffffffffffffffffffffffff168173ffffffffffffffffffffffffffffffffffffffff1603610c93576040517f08c379a0000000000000000000000000000000000000000000000000000000008152600401610c8a906130ae565b60405180910390fd5b80915050919050565b60008073ffffffffffffffffffffffffffffffffffffffff168273ffffffffffffffffffffffffffffffffffffffff1603610d0c576040517f08c379a0000000000000000000000000000000000000000000000000000000008152600401610d0390613140565b60405180910390fd5b600360008373ffffffffffffffffffffffffffffffffffffffff1673ffffffffffffffffffffffffffffffffffffffff168152602001908152602001600020549050919050565b610d5b61172c565b610d6560006117aa565b565b6000600660009054906101000a900473ffffffffffffffffffffffffffffffffffffffff16905090565b606060018054610da090612a22565b80601f0160208091040260200160405190810160405280929190818152602001828054610dcc90612a22565b8015610e195780601f10610dee57610100808354040283529160200191610e19565b820191906000526020600020905b815481529060010190602001808311610dfc57829003601f168201915b5050505050905090565b610e35610e2e6110cf565b8383611870565b5050565b610e4a610e446110cf565b83611190565b610e89576040517f08c379a0000000000000000000000000000000000000000000000000000000008152600401610e8090612be9565b60405180910390fd5b610e95848484846119dc565b50505050565b6060610ea682611084565b6000610eb0611a38565b90506000815111610ed05760405180602001604052806000815250610efb565b80610eda84611a4f565b604051602001610eeb92919061319c565b6040516020818303038152906040525b915050919050565b6000600560008473ffffffffffffffffffffffffffffffffffffffff1673ffffffffffffffffffffffffffffffffffffffff16815260200190815260200160002060008373ffffffffffffffffffffffffffffffffffffffff1673ffffffffffffffffffffffffffffffffffffffff16815260200190815260200160002060009054906101000a900460ff16905092915050565b610f9f61172c565b600073ffffffffffffffffffffffffffffffffffffffff168173ffffffffffffffffffffffffffffffffffffffff160361100e576040517f08c379a000000000000000000000000000000000000000000000000000000000815260040161100590613232565b60405180910390fd5b611017816117aa565b50565b60007f01ffc9a7000000000000000000000000000000000000000000000000000000007bffffffffffffffffffffffffffffffffffffffffffffffffffffffff1916827bffffffffffffffffffffffffffffffffffffffffffffffffffffffff1916149050919050565b61108d8161166c565b6110cc576040517f08c379a00000000000000000000000000000000000000000000000000000000081526004016110c3906130ae565b60405180910390fd5b50565b600033905090565b816004600083815260200190815260200160002060006101000a81548173ffffffffffffffffffffffffffffffffffffffff021916908373ffffffffffffffffffffffffffffffffffffffff160217905550808273ffffffffffffffffffffffffffffffffffffffff1661114a83610c16565b73ffffffffffffffffffffffffffffffffffffffff167f8c5be1e5ebec7d5bd14f71427d1e84f3dd0314c0f7b2291e5b200ac8c7c3b92560405160405180910390a45050565b60008061119c83610c16565b90508073ffffffffffffffffffffffffffffffffffffffff168473ffffffffffffffffffffffffffffffffffffffff1614806111de57506111dd8185610f03565b5b8061121c57508373ffffffffffffffffffffffffffffffffffffffff166112048461062d565b73ffffffffffffffffffffffffffffffffffffffff16145b91505092915050565b8273ffffffffffffffffffffffffffffffffffffffff1661124582610c16565b73ffffffffffffffffffffffffffffffffffffffff161461129b576040517f08c379a0000000000000000000000000000000000000000000000000000000008152600401611292906132c4565b60405180910390fd5b600073ffffffffffffffffffffffffffffffffffffffff168273ffffffffffffffffffffffffffffffffffffffff160361130a576040517f08c379a000000000000000000000000000000000000000000000000000000000815260040161130190613356565b60405180910390fd5b6113178383836001611b1d565b8273ffffffffffffffffffffffffffffffffffffffff1661133782610c16565b73ffffffffffffffffffffffffffffffffffffffff161461138d576040517f08c379a0000000000000000000000000000000000000000000000000000000008152600401611384906132c4565b60405180910390fd5b6004600082815260200190815260200160002060006101000a81549073ffffffffffffffffffffffffffffffffffffffff02191690556001600360008573ffffffffffffffffffffffffffffffffffffffff1673ffffffffffffffffffffffffffffffffffffffff168152602001908152602001600020600082825403925050819055506001600360008473ffffffffffffffffffffffffffffffffffffffff1673ffffffffffffffffffffffffffffffffffffffff16815260200190815260200160002060008282540192505081905550816002600083815260200190815260200160002060006101000a81548173ffffffffffffffffffffffffffffffffffffffff021916908373ffffffffffffffffffffffffffffffffffffffff160217905550808273ffffffffffffffffffffffffffffffffffffffff168473ffffffffffffffffffffffffffffffffffffffff167fddf252ad1be2c89b69c2b068fc378daa952ba7f163c4a11628f55a4df523b3ef60405160405180910390a46115198383836001611c43565b505050565b600061152982610c16565b9050611539816000846001611b1d565b61154282610c16565b90506004600083815260200190815260200160002060006101000a81549073ffffffffffffffffffffffffffffffffffffffff02191690556001600360008373ffffffffffffffffffffffffffffffffffffffff1673ffffffffffffffffffffffffffffffffffffffff168152602001908152602001600020600082825403925050819055506002600083815260200190815260200160002060006101000a81549073ffffffffffffffffffffffffffffffffffffffff021916905581600073ffffffffffffffffffffffffffffffffffffffff168273ffffffffffffffffffffffffffffffffffffffff167fddf252ad1be2c89b69c2b068fc378daa952ba7f163c4a11628f55a4df523b3ef60405160405180910390a4611668816000846001611c43565b5050565b60008073ffffffffffffffffffffffffffffffffffffffff1661168e836116ef565b73ffffffffffffffffffffffffffffffffffffffff1614159050919050565b600081600001549050919050565b6001816000016000828254019250508190555050565b6116eb828260405180602001604052806000815250611c49565b5050565b60006002600083815260200190815260200160002060009054906101000a900473ffffffffffffffffffffffffffffffffffffffff169050919050565b6117346110cf565b73ffffffffffffffffffffffffffffffffffffffff16611752610d67565b73ffffffffffffffffffffffffffffffffffffffff16146117a8576040517f08c379a000000000000000000000000000000000000000000000000000000000815260040161179f906133c2565b60405180910390fd5b565b6000600660009054906101000a900473ffffffffffffffffffffffffffffffffffffffff16905081600660006101000a81548173ffffffffffffffffffffffffffffffffffffffff021916908373ffffffffffffffffffffffffffffffffffffffff1602179055508173ffffffffffffffffffffffffffffffffffffffff168173ffffffffffffffffffffffffffffffffffffffff167f8be0079c531659141344cd1fd0a4f28419497f9722a3daafe3b4186f6b6457e060405160405180910390a35050565b8173ffffffffffffffffffffffffffffffffffffffff168373ffffffffffffffffffffffffffffffffffffffff16036118de576040517f08c379a00000000000000000000000000000000000000000000000000000000081526004016118d59061342e565b60405180910390fd5b80600560008573ffffffffffffffffffffffffffffffffffffffff1673ffffffffffffffffffffffffffffffffffffffff16815260200190815260200160002060008473ffffffffffffffffffffffffffffffffffffffff1673ffffffffffffffffffffffffffffffffffffffff16815260200190815260200160002060006101000a81548160ff0219169083151502179055508173ffffffffffffffffffffffffffffffffffffffff168373ffffffffffffffffffffffffffffffffffffffff167f17307eab39ab6107e8899845ad3d59bd9653f200f220920489ca2b5937696c31836040516119cf91906122a1565b60405180910390a3505050565b6119e7848484611225565b6119f384848484611ca4565b611a32576040517f08c379a0000000000000000000000000000000000000000000000000000000008152600401611a29906134c0565b60405180910390fd5b50505050565b606060405180602001604052806000815250905090565b606060006001611a5e84611e2b565b01905060008167ffffffffffffffff811115611a7d57611a7c6125ee565b5b6040519080825280601f01601f191660200182016040528015611aaf5781602001600182028036833780820191505090505b509050600082602001820190505b600115611b12578080600190039150507f3031323334353637383961626364656600000000000000000000000000000000600a86061a8153600a8581611b0657611b056134e0565b5b04945060008503611abd575b819350505050919050565b6001811115611c3d57600073ffffffffffffffffffffffffffffffffffffffff168473ffffffffffffffffffffffffffffffffffffffff1614611bb15780600360008673ffffffffffffffffffffffffffffffffffffffff1673ffffffffffffffffffffffffffffffffffffffff1681526020019081526020016000206000828254611ba9919061350f565b925050819055505b600073ffffffffffffffffffffffffffffffffffffffff168373ffffffffffffffffffffffffffffffffffffffff1614611c3c5780600360008573ffffffffffffffffffffffffffffffffffffffff1673ffffffffffffffffffffffffffffffffffffffff1681526020019081526020016000206000828254611c349190613543565b925050819055505b5b50505050565b50505050565b611c538383611f7e565b611c606000848484611ca4565b611c9f576040517f08c379a0000000000000000000000000000000000000000000000000000000008152600401611c96906134c0565b60405180910390fd5b505050565b6000611cc58473ffffffffffffffffffffffffffffffffffffffff1661219b565b15611e1e578373ffffffffffffffffffffffffffffffffffffffff1663150b7a02611cee6110cf565b8786866040518563ffffffff1660e01b8152600401611d1094939291906135cc565b6020604051808303816000875af1925050508015611d4c57506040513d601f19601f82011682018060405250810190611d49919061362d565b60015b611dce573d8060008114611d7c576040519150601f19603f3d011682016040523d82523d6000602084013e611d81565b606091505b506000815103611dc6576040517f08c379a0000000000000000000000000000000000000000000000000000000008152600401611dbd906134c0565b60405180910390fd5b805181602001fd5b63150b7a0260e01b7bffffffffffffffffffffffffffffffffffffffffffffffffffffffff1916817bffffffffffffffffffffffffffffffffffffffffffffffffffffffff191614915050611e23565b600190505b949350505050565b600080600090507a184f03e93ff9f4daa797ed6e38ed64bf6a1f0100000000000000008310611e89577a184f03e93ff9f4daa797ed6e38ed64bf6a1f0100000000000000008381611e7f57611e7e6134e0565b5b0492506040810190505b6d04ee2d6d415b85acef81000000008310611ec6576d04ee2d6d415b85acef81000000008381611ebc57611ebb6134e0565b5b0492506020810190505b662386f26fc100008310611ef557662386f26fc100008381611eeb57611eea6134e0565b5b0492506010810190505b6305f5e1008310611f1e576305f5e1008381611f1457611f136134e0565b5b0492506008810190505b6127108310611f43576127108381611f3957611f386134e0565b5b0492506004810190505b60648310611f665760648381611f5c57611f5b6134e0565b5b0492506002810190505b600a8310611f75576001810190505b80915050919050565b600073ffffffffffffffffffffffffffffffffffffffff168273ffffffffffffffffffffffffffffffffffffffff1603611fed576040517f08c379a0000000000000000000000000000000000000000000000000000000008152600401611fe4906136a6565b60405180910390fd5b611ff68161166c565b15612036576040517f08c379a000000000000000000000000000000000000000000000000000000000815260040161202d90613712565b60405180910390fd5b612044600083836001611b1d565b61204d8161166c565b1561208d576040517f08c379a000000000000000000000000000000000000000000000000000000000815260040161208490613712565b60405180910390fd5b6001600360008473ffffffffffffffffffffffffffffffffffffffff1673ffffffffffffffffffffffffffffffffffffffff16815260200190815260200160002060008282540192505081905550816002600083815260200190815260200160002060006101000a81548173ffffffffffffffffffffffffffffffffffffffff021916908373ffffffffffffffffffffffffffffffffffffffff160217905550808273ffffffffffffffffffffffffffffffffffffffff16600073ffffffffffffffffffffffffffffffffffffffff167fddf252ad1be2c89b69c2b068fc378daa952ba7f163c4a11628f55a4df523b3ef60405160405180910390a4612197600083836001611c43565b5050565b6000808273ffffffffffffffffffffffffffffffffffffffff163b119050919050565b6040518060a0016040528060608152602001600081526020016000815260200160608152602001600081525090565b6000604051905090565b600080fd5b600080fd5b60007fffffffff0000000000000000000000000000000000000000000000000000000082169050919050565b61223681612201565b811461224157600080fd5b50565b6000813590506122538161222d565b92915050565b60006020828403121561226f5761226e6121f7565b5b600061227d84828501612244565b91505092915050565b60008115159050919050565b61229b81612286565b82525050565b60006020820190506122b66000830184612292565b92915050565b600081519050919050565b600082825260208201905092915050565b60005b838110156122f65780820151818401526020810190506122db565b60008484015250505050565b6000601f19601f8301169050919050565b600061231e826122bc565b61232881856122c7565b93506123388185602086016122d8565b61234181612302565b840191505092915050565b600060208201905081810360008301526123668184612313565b905092915050565b6000819050919050565b6123818161236e565b811461238c57600080fd5b50565b60008135905061239e81612378565b92915050565b6000602082840312156123ba576123b96121f7565b5b60006123c88482850161238f565b91505092915050565b600073ffffffffffffffffffffffffffffffffffffffff82169050919050565b60006123fc826123d1565b9050919050565b61240c816123f1565b82525050565b60006020820190506124276000830184612403565b92915050565b612436816123f1565b811461244157600080fd5b50565b6000813590506124538161242d565b92915050565b600080604083850312156124705761246f6121f7565b5b600061247e85828601612444565b925050602061248f8582860161238f565b9150509250929050565b6000806000606084860312156124b2576124b16121f7565b5b60006124c086828701612444565b93505060206124d186828701612444565b92505060406124e28682870161238f565b9150509250925092565b600082825260208201905092915050565b6000612508826122bc565b61251281856124ec565b93506125228185602086016122d8565b61252b81612302565b840191505092915050565b61253f8161236e565b82525050565b600060a083016000830151848203600086015261256282826124fd565b91505060208301516125776020860182612536565b50604083015161258a6040860182612536565b50606083015184820360608601526125a282826124fd565b91505060808301516125b76080860182612536565b508091505092915050565b600060208201905081810360008301526125dc8184612545565b905092915050565b600080fd5b600080fd5b7f4e487b7100000000000000000000000000000000000000000000000000000000600052604160045260246000fd5b61262682612302565b810181811067ffffffffffffffff82111715612645576126446125ee565b5b80604052505050565b60006126586121ed565b9050612664828261261d565b919050565b600067ffffffffffffffff821115612684576126836125ee565b5b61268d82612302565b9050602081019050919050565b82818337600083830152505050565b60006126bc6126b784612669565b61264e565b9050828152602081018484840111156126d8576126d76125e9565b5b6126e384828561269a565b509392505050565b600082601f830112612700576126ff6125e4565b5b81356127108482602086016126a9565b91505092915050565b600080600080600060a08688031215612735576127346121f7565b5b600086013567ffffffffffffffff811115612753576127526121fc565b5b61275f888289016126eb565b95505060206127708882890161238f565b94505060406127818882890161238f565b935050606086013567ffffffffffffffff8111156127a2576127a16121fc565b5b6127ae888289016126eb565b92505060806127bf8882890161238f565b9150509295509295909350565b6000602082840312156127e2576127e16121f7565b5b60006127f084828501612444565b91505092915050565b6128028161236e565b82525050565b600060208201905061281d60008301846127f9565b92915050565b61282c81612286565b811461283757600080fd5b50565b60008135905061284981612823565b92915050565b60008060408385031215612866576128656121f7565b5b600061287485828601612444565b92505060206128858582860161283a565b9150509250929050565b600067ffffffffffffffff8211156128aa576128a96125ee565b5b6128b382612302565b9050602081019050919050565b60006128d36128ce8461288f565b61264e565b9050828152602081018484840111156128ef576128ee6125e9565b5b6128fa84828561269a565b509392505050565b600082601f830112612917576129166125e4565b5b81356129278482602086016128c0565b91505092915050565b6000806000806080858703121561294a576129496121f7565b5b600061295887828801612444565b945050602061296987828801612444565b935050604061297a8782880161238f565b925050606085013567ffffffffffffffff81111561299b5761299a6121fc565b5b6129a787828801612902565b91505092959194509250565b600080604083850312156129ca576129c96121f7565b5b60006129d885828601612444565b92505060206129e985828601612444565b9150509250929050565b7f4e487b7100000000000000000000000000000000000000000000000000000000600052602260045260246000fd5b60006002820490506001821680612a3a57607f821691505b602082108103612a4d57612a4c6129f3565b5b50919050565b7f4552433732313a20617070726f76616c20746f2063757272656e74206f776e6560008201527f7200000000000000000000000000000000000000000000000000000000000000602082015250565b6000612aaf6021836122c7565b9150612aba82612a53565b604082019050919050565b60006020820190508181036000830152612ade81612aa2565b9050919050565b7f4552433732313a20617070726f76652063616c6c6572206973206e6f7420746f60008201527f6b656e206f776e6572206f7220617070726f76656420666f7220616c6c000000602082015250565b6000612b41603d836122c7565b9150612b4c82612ae5565b604082019050919050565b60006020820190508181036000830152612b7081612b34565b9050919050565b7f4552433732313a2063616c6c6572206973206e6f7420746f6b656e206f776e6560008201527f72206f7220617070726f76656400000000000000000000000000000000000000602082015250565b6000612bd3602d836122c7565b9150612bde82612b77565b604082019050919050565b60006020820190508181036000830152612c0281612bc6565b9050919050565b7f4f6e6c7920636f6e7472616374206f776e65722063616e20776974686472617760008201527f2066756e64730000000000000000000000000000000000000000000000000000602082015250565b6000612c656026836122c7565b9150612c7082612c09565b604082019050919050565b60006020820190508181036000830152612c9481612c58565b9050919050565b7f4e465420646f6573206e6f742065786973740000000000000000000000000000600082015250565b6000612cd16012836122c7565b9150612cdc82612c9b565b602082019050919050565b60006020820190508181036000830152612d0081612cc4565b9050919050565b7f4e487b7100000000000000000000000000000000000000000000000000000000600052601160045260246000fd5b6000612d418261236e565b9150612d4c8361236e565b9250828202612d5a8161236e565b91508282048414831517612d7157612d70612d07565b5b5092915050565b7f6574686572206973206e6f7420656e6f75676800000000000000000000000000600082015250565b6000612dae6013836122c7565b9150612db982612d78565b602082019050919050565b60006020820190508181036000830152612ddd81612da1565b9050919050565b60008190508160005260206000209050919050565b60006020601f8301049050919050565b600082821b905092915050565b600060088302612e467fffffffffffffffffffffffffffffffffffffffffffffffffffffffffffffffff82612e09565b612e508683612e09565b95508019841693508086168417925050509392505050565b6000819050919050565b6000612e8d612e88612e838461236e565b612e68565b61236e565b9050919050565b6000819050919050565b612ea783612e72565b612ebb612eb382612e94565b848454612e16565b825550505050565b600090565b612ed0612ec3565b612edb818484612e9e565b505050565b5b81811015612eff57612ef4600082612ec8565b600181019050612ee1565b5050565b601f821115612f4457612f1581612de4565b612f1e84612df9565b81016020851015612f2d578190505b612f41612f3985612df9565b830182612ee0565b50505b505050565b600082821c905092915050565b6000612f6760001984600802612f49565b1980831691505092915050565b6000612f808383612f56565b9150826002028217905092915050565b612f99826122bc565b67ffffffffffffffff811115612fb257612fb16125ee565b5b612fbc8254612a22565b612fc7828285612f03565b600060209050601f831160018114612ffa5760008415612fe8578287015190505b612ff28582612f74565b86555061305a565b601f19841661300886612de4565b60005b828110156130305784890151825560018201915060208501945060208101905061300b565b8683101561304d5784890151613049601f891682612f56565b8355505b6001600288020188555050505b505050505050565b7f4552433732313a20696e76616c696420746f6b656e2049440000000000000000600082015250565b60006130986018836122c7565b91506130a382613062565b602082019050919050565b600060208201905081810360008301526130c78161308b565b9050919050565b7f4552433732313a2061646472657373207a65726f206973206e6f74206120766160008201527f6c6964206f776e65720000000000000000000000000000000000000000000000602082015250565b600061312a6029836122c7565b9150613135826130ce565b604082019050919050565b600060208201905081810360008301526131598161311d565b9050919050565b600081905092915050565b6000613176826122bc565b6131808185613160565b93506131908185602086016122d8565b80840191505092915050565b60006131a8828561316b565b91506131b4828461316b565b91508190509392505050565b7f4f776e61626c653a206e6577206f776e657220697320746865207a65726f206160008201527f6464726573730000000000000000000000000000000000000000000000000000602082015250565b600061321c6026836122c7565b9150613227826131c0565b604082019050919050565b6000602082019050818103600083015261324b8161320f565b9050919050565b7f4552433732313a207472616e736665722066726f6d20696e636f72726563742060008201527f6f776e6572000000000000000000000000000000000000000000000000000000602082015250565b60006132ae6025836122c7565b91506132b982613252565b604082019050919050565b600060208201905081810360008301526132dd816132a1565b9050919050565b7f4552433732313a207472616e7366657220746f20746865207a65726f2061646460008201527f7265737300000000000000000000000000000000000000000000000000000000602082015250565b60006133406024836122c7565b915061334b826132e4565b604082019050919050565b6000602082019050818103600083015261336f81613333565b9050919050565b7f4f776e61626c653a2063616c6c6572206973206e6f7420746865206f776e6572600082015250565b60006133ac6020836122c7565b91506133b782613376565b602082019050919050565b600060208201905081810360008301526133db8161339f565b9050919050565b7f4552433732313a20617070726f766520746f2063616c6c657200000000000000600082015250565b60006134186019836122c7565b9150613423826133e2565b602082019050919050565b600060208201905081810360008301526134478161340b565b9050919050565b7f4552433732313a207472616e7366657220746f206e6f6e20455243373231526560008201527f63656976657220696d706c656d656e7465720000000000000000000000000000602082015250565b60006134aa6032836122c7565b91506134b58261344e565b604082019050919050565b600060208201905081810360008301526134d98161349d565b9050919050565b7f4e487b7100000000000000000000000000000000000000000000000000000000600052601260045260246000fd5b600061351a8261236e565b91506135258361236e565b925082820390508181111561353d5761353c612d07565b5b92915050565b600061354e8261236e565b91506135598361236e565b925082820190508082111561357157613570612d07565b5b92915050565b600081519050919050565b600082825260208201905092915050565b600061359e82613577565b6135a88185613582565b93506135b88185602086016122d8565b6135c181612302565b840191505092915050565b60006080820190506135e16000830187612403565b6135ee6020830186612403565b6135fb60408301856127f9565b818103606083015261360d8184613593565b905095945050505050565b6000815190506136278161222d565b92915050565b600060208284031215613643576136426121f7565b5b600061365184828501613618565b91505092915050565b7f4552433732313a206d696e7420746f20746865207a65726f2061646472657373600082015250565b60006136906020836122c7565b915061369b8261365a565b602082019050919050565b600060208201905081810360008301526136bf81613683565b9050919050565b7f4552433732313a20746f6b656e20616c7265616479206d696e74656400000000600082015250565b60006136fc601c836122c7565b9150613707826136c6565b602082019050919050565b6000602082019050818103600083015261372b816136ef565b905091905056fea2646970667358221220bcd978b8e8f194ffd469b874b0281a437925ebc2a6344393a17676c30dd6294064736f6c63430008110033",
  "linkReferences": {},
  "deployedLinkReferences": {}
}