{
  "_format": "hh-sol-artifact-1",
  "contractName": "Ticket",
  "sourceName": "contracts/Ticket.sol",
  "abi": [
    {
      "inputs": [],
      "stateMutability": "nonpayable",
      "type": "constructor"
    },
    {
      "anonymous": false,
      "inputs": [
        {
          "indexed": true,
          "internalType": "address",
          "name": "owner",
          "type": "address"
        },
        {
          "indexed": true,
          "internalType": "address",
          "name": "approved",
          "type": "address"
        },
        {
          "indexed": true,
          "internalType": "uint256",
          "name": "tokenId",
          "type": "uint256"
        }
      ],
      "name": "Approval",
      "type": "event"
    },
    {
      "anonymous": false,
      "inputs": [
        {
          "indexed": true,
          "internalType": "address",
          "name": "owner",
          "type": "address"
        },
        {
          "indexed": true,
          "internalType": "address",
          "name": "operator",
          "type": "address"
        },
        {
          "indexed": false,
          "internalType": "bool",
          "name": "approved",
          "type": "bool"
        }
      ],
      "name": "ApprovalForAll",
      "type": "event"
    },
    {
      "anonymous": false,
      "inputs": [
        {
          "indexed": true,
          "internalType": "address",
          "name": "previousOwner",
          "type": "address"
        },
        {
          "indexed": true,
          "internalType": "address",
          "name": "newOwner",
          "type": "address"
        }
      ],
      "name": "OwnershipTransferred",
      "type": "event"
    },
    {
      "anonymous": false,
      "inputs": [
        {
          "indexed": true,
          "internalType": "address",
          "name": "from",
          "type": "address"
        },
        {
          "indexed": true,
          "internalType": "address",
          "name": "to",
          "type": "address"
        },
        {
          "indexed": true,
          "internalType": "uint256",
          "name": "tokenId",
          "type": "uint256"
        }
      ],
      "name": "Transfer",
      "type": "event"
    },
    {
      "inputs": [
        {
          "internalType": "address",
          "name": "to",
          "type": "address"
        },
        {
          "internalType": "uint256",
          "name": "tokenId",
          "type": "uint256"
        }
      ],
      "name": "approve",
      "outputs": [],
      "stateMutability": "nonpayable",
      "type": "function"
    },
    {
      "inputs": [
        {
          "internalType": "address",
          "name": "owner",
          "type": "address"
        }
      ],
      "name": "balanceOf",
      "outputs": [
        {
          "internalType": "uint256",
          "name": "",
          "type": "uint256"
        }
      ],
      "stateMutability": "view",
      "type": "function"
    },
    {
      "inputs": [
        {
          "internalType": "uint256",
          "name": "tokenId",
          "type": "uint256"
        }
      ],
      "name": "burn",
      "outputs": [],
      "stateMutability": "nonpayable",
      "type": "function"
    },
    {
      "inputs": [
        {
          "internalType": "string",
          "name": "eventName",
          "type": "string"
        },
        {
          "internalType": "uint256",
          "name": "date",
          "type": "uint256"
        },
        {
          "internalType": "uint256",
          "name": "price",
          "type": "uint256"
        },
        {
          "internalType": "string",
          "name": "venue",
          "type": "string"
        },
        {
          "internalType": "uint256",
          "name": "quantity",
          "type": "uint256"
        }
      ],
      "name": "createNFT",
      "outputs": [],
      "stateMutability": "payable",
      "type": "function"
    },
    {
      "inputs": [
        {
          "internalType": "uint256",
          "name": "tokenId",
          "type": "uint256"
        }
      ],
      "name": "getApproved",
      "outputs": [
        {
          "internalType": "address",
          "name": "",
          "type": "address"
        }
      ],
      "stateMutability": "view",
      "type": "function"
    },
    {
      "inputs": [
        {
          "internalType": "uint256",
          "name": "tokenId",
          "type": "uint256"
        }
      ],
      "name": "getNFT",
      "outputs": [
        {
          "components": [
            {
              "internalType": "string",
              "name": "eventName",
              "type": "string"
            },
            {
              "internalType": "uint256",
              "name": "date",
              "type": "uint256"
            },
            {
              "internalType": "uint256",
              "name": "price",
              "type": "uint256"
            },
            {
              "internalType": "string",
              "name": "venue",
              "type": "string"
            },
            {
              "internalType": "uint256",
              "name": "quantity",
              "type": "uint256"
            }
          ],
          "internalType": "struct Ticket.EventTicket",
          "name": "",
          "type": "tuple"
        }
      ],
      "stateMutability": "view",
      "type": "function"
    },
    {
      "inputs": [
        {
          "internalType": "address",
          "name": "owner",
          "type": "address"
        },
        {
          "internalType": "address",
          "name": "operator",
          "type": "address"
        }
      ],
      "name": "isApprovedForAll",
      "outputs": [
        {
          "internalType": "bool",
          "name": "",
          "type": "bool"
        }
      ],
      "stateMutability": "view",
      "type": "function"
    },
    {
      "inputs": [],
      "name": "name",
      "outputs": [
        {
          "internalType": "string",
          "name": "",
          "type": "string"
        }
      ],
      "stateMutability": "view",
      "type": "function"
    },
    {
      "inputs": [],
      "name": "owner",
      "outputs": [
        {
          "internalType": "address",
          "name": "",
          "type": "address"
        }
      ],
      "stateMutability": "view",
      "type": "function"
    },
    {
      "inputs": [
        {
          "internalType": "uint256",
          "name": "tokenId",
          "type": "uint256"
        }
      ],
      "name": "ownerOf",
      "outputs": [
        {
          "internalType": "address",
          "name": "",
          "type": "address"
        }
      ],
      "stateMutability": "view",
      "type": "function"
    },
    {
      "inputs": [],
      "name": "renounceOwnership",
      "outputs": [],
      "stateMutability": "nonpayable",
      "type": "function"
    },
    {
      "inputs": [
        {
          "internalType": "address",
          "name": "from",
          "type": "address"
        },
        {
          "internalType": "address",
          "name": "to",
          "type": "address"
        },
        {
          "internalType": "uint256",
          "name": "tokenId",
          "type": "uint256"
        }
      ],
      "name": "safeTransferFrom",
      "outputs": [],
      "stateMutability": "nonpayable",
      "type": "function"
    },
    {
      "inputs": [
        {
          "internalType": "address",
          "name": "from",
          "type": "address"
        },
        {
          "internalType": "address",
          "name": "to",
          "type": "address"
        },
        {
          "internalType": "uint256",
          "name": "tokenId",
          "type": "uint256"
        },
        {
          "internalType": "bytes",
          "name": "data",
          "type": "bytes"
        }
      ],
      "name": "safeTransferFrom",
      "outputs": [],
      "stateMutability": "nonpayable",
      "type": "function"
    },
    {
      "inputs": [
        {
          "internalType": "address",
          "name": "operator",
          "type": "address"
        },
        {
          "internalType": "bool",
          "name": "approved",
          "type": "bool"
        }
      ],
      "name": "setApprovalForAll",
      "outputs": [],
      "stateMutability": "nonpayable",
      "type": "function"
    },
    {
      "inputs": [
        {
          "internalType": "bytes4",
          "name": "interfaceId",
          "type": "bytes4"
        }
      ],
      "name": "supportsInterface",
      "outputs": [
        {
          "internalType": "bool",
          "name": "",
          "type": "bool"
        }
      ],
      "stateMutability": "view",
      "type": "function"
    },
    {
      "inputs": [],
      "name": "symbol",
      "outputs": [
        {
          "internalType": "string",
          "name": "",
          "type": "string"
        }
      ],
      "stateMutability": "view",
      "type": "function"
    },
    {
      "inputs": [
        {
          "internalType": "uint256",
          "name": "tokenId",
          "type": "uint256"
        }
      ],
      "name": "tokenURI",
      "outputs": [
        {
          "internalType": "string",
          "name": "",
          "type": "string"
        }
      ],
      "stateMutability": "view",
      "type": "function"
    },
    {
      "inputs": [
        {
          "internalType": "address",
          "name": "from",
          "type": "address"
        },
        {
          "internalType": "address",
          "name": "to",
          "type": "address"
        },
        {
          "internalType": "uint256",
          "name": "tokenId",
          "type": "uint256"
        }
      ],
      "name": "transferFrom",
      "outputs": [],
      "stateMutability": "nonpayable",
      "type": "function"
    },
    {
      "inputs": [
        {
          "internalType": "address",
          "name": "newOwner",
          "type": "address"
        }
      ],
      "name": "transferOwnership",
      "outputs": [],
      "stateMutability": "nonpayable",
      "type": "function"
    },
    {
      "inputs": [],
      "name": "withdrawl",
      "outputs": [],
      "stateMutability": "nonpayable",
      "type": "function"
    }
  ],
  "bytecode": "0x60806040523480156200001157600080fd5b506040518060400160405280600681526020017f5469636b657400000000000000000000000000000000000000000000000000008152506040518060400160405280600281526020017f544b00000000000000000000000000000000000000000000000000000000000081525081600090816200008f919062000412565b508060019081620000a1919062000412565b505050620000c4620000b8620000ca60201b60201c565b620000d260201b60201c565b620004f9565b600033905090565b6000600660009054906101000a900473ffffffffffffffffffffffffffffffffffffffff16905081600660006101000a81548173ffffffffffffffffffffffffffffffffffffffff021916908373ffffffffffffffffffffffffffffffffffffffff1602179055508173ffffffffffffffffffffffffffffffffffffffff168173ffffffffffffffffffffffffffffffffffffffff167f8be0079c531659141344cd1fd0a4f28419497f9722a3daafe3b4186f6b6457e060405160405180910390a35050565b600081519050919050565b7f4e487b7100000000000000000000000000000000000000000000000000000000600052604160045260246000fd5b7f4e487b7100000000000000000000000000000000000000000000000000000000600052602260045260246000fd5b600060028204905060018216806200021a57607f821691505b60208210810362000230576200022f620001d2565b5b50919050565b60008190508160005260206000209050919050565b60006020601f8301049050919050565b600082821b905092915050565b6000600883026200029a7fffffffffffffffffffffffffffffffffffffffffffffffffffffffffffffffff826200025b565b620002a686836200025b565b95508019841693508086168417925050509392505050565b6000819050919050565b6000819050919050565b6000620002f3620002ed620002e784620002be565b620002c8565b620002be565b9050919050565b6000819050919050565b6200030f83620002d2565b620003276200031e82620002fa565b84845462000268565b825550505050565b600090565b6200033e6200032f565b6200034b81848462000304565b505050565b5b8181101562000373576200036760008262000334565b60018101905062000351565b5050565b601f821115620003c2576200038c8162000236565b62000397846200024b565b81016020851015620003a7578190505b620003bf620003b6856200024b565b83018262000350565b50505b505050565b600082821c905092915050565b6000620003e760001984600802620003c7565b1980831691505092915050565b6000620004028383620003d4565b9150826002028217905092915050565b6200041d8262000198565b67ffffffffffffffff811115620004395762000438620001a3565b5b62000445825462000201565b6200045282828562000377565b600060209050601f8311600181146200048a576000841562000475578287015190505b620004818582620003f4565b865550620004f1565b601f1984166200049a8662000236565b60005b82811015620004c4578489015182556001820191506020850194506020810190506200049d565b86831015620004e45784890151620004e0601f891682620003d4565b8355505b6001600288020188555050505b505050505050565b61373180620005096000396000f3fe60806040526004361061011f5760003560e01c80636352211e116100a0578063a22cb46511610064578063a22cb465146103c4578063b88d4fde146103ed578063c87b56dd14610416578063e985e9c514610453578063f2fde38b146104905761011f565b80636352211e146102dd57806370a082311461031a578063715018a6146103575780638da5cb5b1461036e57806395d89b41146103995761011f565b80633aedfb8b116100e75780633aedfb8b1461021b57806342842e0e1461023257806342966c681461025b578063576f7ea714610284578063601d8d1b146102c15761011f565b806301ffc9a71461012457806306fdde0314610161578063081812fc1461018c578063095ea7b3146101c957806323b872dd146101f2575b600080fd5b34801561013057600080fd5b5061014b60048036038101906101469190612222565b6104b9565b604051610158919061226a565b60405180910390f35b34801561016d57600080fd5b5061017661059b565b6040516101839190612315565b60405180910390f35b34801561019857600080fd5b506101b360048036038101906101ae919061236d565b61062d565b6040516101c091906123db565b60405180910390f35b3480156101d557600080fd5b506101f060048036038101906101eb9190612422565b610673565b005b3480156101fe57600080fd5b5061021960048036038101906102149190612462565b61078a565b005b34801561022757600080fd5b506102306107ea565b005b34801561023e57600080fd5b5061025960048036038101906102549190612462565b6108a8565b005b34801561026757600080fd5b50610282600480360381019061027d919061236d565b6108c8565b005b34801561029057600080fd5b506102ab60048036038101906102a6919061236d565b610924565b6040516102b8919061258b565b60405180910390f35b6102db60048036038101906102d691906126e2565b610adb565b005b3480156102e957600080fd5b5061030460048036038101906102ff919061236d565b610bdf565b60405161031191906123db565b60405180910390f35b34801561032657600080fd5b50610341600480360381019061033c9190612795565b610c65565b60405161034e91906127d1565b60405180910390f35b34801561036357600080fd5b5061036c610d1c565b005b34801561037a57600080fd5b50610383610d30565b60405161039091906123db565b60405180910390f35b3480156103a557600080fd5b506103ae610d5a565b6040516103bb9190612315565b60405180910390f35b3480156103d057600080fd5b506103eb60048036038101906103e69190612818565b610dec565b005b3480156103f957600080fd5b50610414600480360381019061040f91906128f9565b610e02565b005b34801561042257600080fd5b5061043d6004803603810190610438919061236d565b610e64565b60405161044a9190612315565b60405180910390f35b34801561045f57600080fd5b5061047a6004803603810190610475919061297c565b610ecc565b604051610487919061226a565b60405180910390f35b34801561049c57600080fd5b506104b760048036038101906104b29190612795565b610f60565b005b60007f80ac58cd000000000000000000000000000000000000000000000000000000007bffffffffffffffffffffffffffffffffffffffffffffffffffffffff1916827bffffffffffffffffffffffffffffffffffffffffffffffffffffffff1916148061058457507f5b5e139f000000000000000000000000000000000000000000000000000000007bffffffffffffffffffffffffffffffffffffffffffffffffffffffff1916827bffffffffffffffffffffffffffffffffffffffffffffffffffffffff1916145b80610594575061059382610fe3565b5b9050919050565b6060600080546105aa906129eb565b80601f01602080910402602001604051908101604052809291908181526020018280546105d6906129eb565b80156106235780601f106105f857610100808354040283529160200191610623565b820191906000526020600020905b81548152906001019060200180831161060657829003601f168201915b5050505050905090565b60006106388261104d565b6004600083815260200190815260200160002060009054906101000a900473ffffffffffffffffffffffffffffffffffffffff169050919050565b600061067e82610bdf565b90508073ffffffffffffffffffffffffffffffffffffffff168373ffffffffffffffffffffffffffffffffffffffff16036106ee576040517f08c379a00000000000000000000000000000000000000000000000000000000081526004016106e590612a8e565b60405180910390fd5b8073ffffffffffffffffffffffffffffffffffffffff1661070d611098565b73ffffffffffffffffffffffffffffffffffffffff16148061073c575061073b81610736611098565b610ecc565b5b61077b576040517f08c379a000000000000000000000000000000000000000000000000000000000815260040161077290612b20565b60405180910390fd5b61078583836110a0565b505050565b61079b610795611098565b82611159565b6107da576040517f08c379a00000000000000000000000000000000000000000000000000000000081526004016107d190612bb2565b60405180910390fd5b6107e58383836111ee565b505050565b6107f2610d30565b73ffffffffffffffffffffffffffffffffffffffff163373ffffffffffffffffffffffffffffffffffffffff161461085f576040517f08c379a000000000000000000000000000000000000000000000000000000000815260040161085690612c44565b60405180910390fd5b3373ffffffffffffffffffffffffffffffffffffffff166108fc479081150290604051600060405180830381858888f193505050501580156108a5573d6000803e3d6000fd5b50565b6108c383838360405180602001604052806000815250610e02565b505050565b6108d96108d3611098565b82611159565b610918576040517f08c379a000000000000000000000000000000000000000000000000000000000815260040161090f90612bb2565b60405180910390fd5b610921816114e7565b50565b61092c612187565b61093582611635565b610974576040517f08c379a000000000000000000000000000000000000000000000000000000000815260040161096b90612cb0565b60405180910390fd5b600860008381526020019081526020016000206040518060a00160405290816000820180546109a2906129eb565b80601f01602080910402602001604051908101604052809291908181526020018280546109ce906129eb565b8015610a1b5780601f106109f057610100808354040283529160200191610a1b565b820191906000526020600020905b8154815290600101906020018083116109fe57829003601f168201915b505050505081526020016001820154815260200160028201548152602001600382018054610a48906129eb565b80601f0160208091040260200160405190810160405280929190818152602001828054610a74906129eb565b8015610ac15780601f10610a9657610100808354040283529160200191610ac1565b820191906000526020600020905b815481529060010190602001808311610aa457829003601f168201915b505050505081526020016004820154815250509050919050565b8083610ae79190612cff565b3414610b28576040517f08c379a0000000000000000000000000000000000000000000000000000000008152600401610b1f90612d8d565b60405180910390fd5b6000610b346007611676565b9050610b406007611684565b610b4a338261169a565b60006040518060a0016040528088815260200187815260200186815260200185815260200184815250905080600860008481526020019081526020016000206000820151816000019081610b9e9190612f59565b5060208201518160010155604082015181600201556060820151816003019081610bc89190612f59565b506080820151816004015590505050505050505050565b600080610beb836116b8565b9050600073ffffffffffffffffffffffffffffffffffffffff168173ffffffffffffffffffffffffffffffffffffffff1603610c5c576040517f08c379a0000000000000000000000000000000000000000000000000000000008152600401610c5390613077565b60405180910390fd5b80915050919050565b60008073ffffffffffffffffffffffffffffffffffffffff168273ffffffffffffffffffffffffffffffffffffffff1603610cd5576040517f08c379a0000000000000000000000000000000000000000000000000000000008152600401610ccc90613109565b60405180910390fd5b600360008373ffffffffffffffffffffffffffffffffffffffff1673ffffffffffffffffffffffffffffffffffffffff168152602001908152602001600020549050919050565b610d246116f5565b610d2e6000611773565b565b6000600660009054906101000a900473ffffffffffffffffffffffffffffffffffffffff16905090565b606060018054610d69906129eb565b80601f0160208091040260200160405190810160405280929190818152602001828054610d95906129eb565b8015610de25780601f10610db757610100808354040283529160200191610de2565b820191906000526020600020905b815481529060010190602001808311610dc557829003601f168201915b5050505050905090565b610dfe610df7611098565b8383611839565b5050565b610e13610e0d611098565b83611159565b610e52576040517f08c379a0000000000000000000000000000000000000000000000000000000008152600401610e4990612bb2565b60405180910390fd5b610e5e848484846119a5565b50505050565b6060610e6f8261104d565b6000610e79611a01565b90506000815111610e995760405180602001604052806000815250610ec4565b80610ea384611a18565b604051602001610eb4929190613165565b6040516020818303038152906040525b915050919050565b6000600560008473ffffffffffffffffffffffffffffffffffffffff1673ffffffffffffffffffffffffffffffffffffffff16815260200190815260200160002060008373ffffffffffffffffffffffffffffffffffffffff1673ffffffffffffffffffffffffffffffffffffffff16815260200190815260200160002060009054906101000a900460ff16905092915050565b610f686116f5565b600073ffffffffffffffffffffffffffffffffffffffff168173ffffffffffffffffffffffffffffffffffffffff1603610fd7576040517f08c379a0000000000000000000000000000000000000000000000000000000008152600401610fce906131fb565b60405180910390fd5b610fe081611773565b50565b60007f01ffc9a7000000000000000000000000000000000000000000000000000000007bffffffffffffffffffffffffffffffffffffffffffffffffffffffff1916827bffffffffffffffffffffffffffffffffffffffffffffffffffffffff1916149050919050565b61105681611635565b611095576040517f08c379a000000000000000000000000000000000000000000000000000000000815260040161108c90613077565b60405180910390fd5b50565b600033905090565b816004600083815260200190815260200160002060006101000a81548173ffffffffffffffffffffffffffffffffffffffff021916908373ffffffffffffffffffffffffffffffffffffffff160217905550808273ffffffffffffffffffffffffffffffffffffffff1661111383610bdf565b73ffffffffffffffffffffffffffffffffffffffff167f8c5be1e5ebec7d5bd14f71427d1e84f3dd0314c0f7b2291e5b200ac8c7c3b92560405160405180910390a45050565b60008061116583610bdf565b90508073ffffffffffffffffffffffffffffffffffffffff168473ffffffffffffffffffffffffffffffffffffffff1614806111a757506111a68185610ecc565b5b806111e557508373ffffffffffffffffffffffffffffffffffffffff166111cd8461062d565b73ffffffffffffffffffffffffffffffffffffffff16145b91505092915050565b8273ffffffffffffffffffffffffffffffffffffffff1661120e82610bdf565b73ffffffffffffffffffffffffffffffffffffffff1614611264576040517f08c379a000000000000000000000000000000000000000000000000000000000815260040161125b9061328d565b60405180910390fd5b600073ffffffffffffffffffffffffffffffffffffffff168273ffffffffffffffffffffffffffffffffffffffff16036112d3576040517f08c379a00000000000000000000000000000000000000000000000000000000081526004016112ca9061331f565b60405180910390fd5b6112e08383836001611ae6565b8273ffffffffffffffffffffffffffffffffffffffff1661130082610bdf565b73ffffffffffffffffffffffffffffffffffffffff1614611356576040517f08c379a000000000000000000000000000000000000000000000000000000000815260040161134d9061328d565b60405180910390fd5b6004600082815260200190815260200160002060006101000a81549073ffffffffffffffffffffffffffffffffffffffff02191690556001600360008573ffffffffffffffffffffffffffffffffffffffff1673ffffffffffffffffffffffffffffffffffffffff168152602001908152602001600020600082825403925050819055506001600360008473ffffffffffffffffffffffffffffffffffffffff1673ffffffffffffffffffffffffffffffffffffffff16815260200190815260200160002060008282540192505081905550816002600083815260200190815260200160002060006101000a81548173ffffffffffffffffffffffffffffffffffffffff021916908373ffffffffffffffffffffffffffffffffffffffff160217905550808273ffffffffffffffffffffffffffffffffffffffff168473ffffffffffffffffffffffffffffffffffffffff167fddf252ad1be2c89b69c2b068fc378daa952ba7f163c4a11628f55a4df523b3ef60405160405180910390a46114e28383836001611c0c565b505050565b60006114f282610bdf565b9050611502816000846001611ae6565b61150b82610bdf565b90506004600083815260200190815260200160002060006101000a81549073ffffffffffffffffffffffffffffffffffffffff02191690556001600360008373ffffffffffffffffffffffffffffffffffffffff1673ffffffffffffffffffffffffffffffffffffffff168152602001908152602001600020600082825403925050819055506002600083815260200190815260200160002060006101000a81549073ffffffffffffffffffffffffffffffffffffffff021916905581600073ffffffffffffffffffffffffffffffffffffffff168273ffffffffffffffffffffffffffffffffffffffff167fddf252ad1be2c89b69c2b068fc378daa952ba7f163c4a11628f55a4df523b3ef60405160405180910390a4611631816000846001611c0c565b5050565b60008073ffffffffffffffffffffffffffffffffffffffff16611657836116b8565b73ffffffffffffffffffffffffffffffffffffffff1614159050919050565b600081600001549050919050565b6001816000016000828254019250508190555050565b6116b4828260405180602001604052806000815250611c12565b5050565b60006002600083815260200190815260200160002060009054906101000a900473ffffffffffffffffffffffffffffffffffffffff169050919050565b6116fd611098565b73ffffffffffffffffffffffffffffffffffffffff1661171b610d30565b73ffffffffffffffffffffffffffffffffffffffff1614611771576040517f08c379a00000000000000000000000000000000000000000000000000000000081526004016117689061338b565b60405180910390fd5b565b6000600660009054906101000a900473ffffffffffffffffffffffffffffffffffffffff16905081600660006101000a81548173ffffffffffffffffffffffffffffffffffffffff021916908373ffffffffffffffffffffffffffffffffffffffff1602179055508173ffffffffffffffffffffffffffffffffffffffff168173ffffffffffffffffffffffffffffffffffffffff167f8be0079c531659141344cd1fd0a4f28419497f9722a3daafe3b4186f6b6457e060405160405180910390a35050565b8173ffffffffffffffffffffffffffffffffffffffff168373ffffffffffffffffffffffffffffffffffffffff16036118a7576040517f08c379a000000000000000000000000000000000000000000000000000000000815260040161189e906133f7565b60405180910390fd5b80600560008573ffffffffffffffffffffffffffffffffffffffff1673ffffffffffffffffffffffffffffffffffffffff16815260200190815260200160002060008473ffffffffffffffffffffffffffffffffffffffff1673ffffffffffffffffffffffffffffffffffffffff16815260200190815260200160002060006101000a81548160ff0219169083151502179055508173ffffffffffffffffffffffffffffffffffffffff168373ffffffffffffffffffffffffffffffffffffffff167f17307eab39ab6107e8899845ad3d59bd9653f200f220920489ca2b5937696c3183604051611998919061226a565b60405180910390a3505050565b6119b08484846111ee565b6119bc84848484611c6d565b6119fb576040517f08c379a00000000000000000000000000000000000000000000000000000000081526004016119f290613489565b60405180910390fd5b50505050565b606060405180602001604052806000815250905090565b606060006001611a2784611df4565b01905060008167ffffffffffffffff811115611a4657611a456125b7565b5b6040519080825280601f01601f191660200182016040528015611a785781602001600182028036833780820191505090505b509050600082602001820190505b600115611adb578080600190039150507f3031323334353637383961626364656600000000000000000000000000000000600a86061a8153600a8581611acf57611ace6134a9565b5b04945060008503611a86575b819350505050919050565b6001811115611c0657600073ffffffffffffffffffffffffffffffffffffffff168473ffffffffffffffffffffffffffffffffffffffff1614611b7a5780600360008673ffffffffffffffffffffffffffffffffffffffff1673ffffffffffffffffffffffffffffffffffffffff1681526020019081526020016000206000828254611b7291906134d8565b925050819055505b600073ffffffffffffffffffffffffffffffffffffffff168373ffffffffffffffffffffffffffffffffffffffff1614611c055780600360008573ffffffffffffffffffffffffffffffffffffffff1673ffffffffffffffffffffffffffffffffffffffff1681526020019081526020016000206000828254611bfd919061350c565b925050819055505b5b50505050565b50505050565b611c1c8383611f47565b611c296000848484611c6d565b611c68576040517f08c379a0000000000000000000000000000000000000000000000000000000008152600401611c5f90613489565b60405180910390fd5b505050565b6000611c8e8473ffffffffffffffffffffffffffffffffffffffff16612164565b15611de7578373ffffffffffffffffffffffffffffffffffffffff1663150b7a02611cb7611098565b8786866040518563ffffffff1660e01b8152600401611cd99493929190613595565b6020604051808303816000875af1925050508015611d1557506040513d601f19601f82011682018060405250810190611d1291906135f6565b60015b611d97573d8060008114611d45576040519150601f19603f3d011682016040523d82523d6000602084013e611d4a565b606091505b506000815103611d8f576040517f08c379a0000000000000000000000000000000000000000000000000000000008152600401611d8690613489565b60405180910390fd5b805181602001fd5b63150b7a0260e01b7bffffffffffffffffffffffffffffffffffffffffffffffffffffffff1916817bffffffffffffffffffffffffffffffffffffffffffffffffffffffff191614915050611dec565b600190505b949350505050565b600080600090507a184f03e93ff9f4daa797ed6e38ed64bf6a1f0100000000000000008310611e52577a184f03e93ff9f4daa797ed6e38ed64bf6a1f0100000000000000008381611e4857611e476134a9565b5b0492506040810190505b6d04ee2d6d415b85acef81000000008310611e8f576d04ee2d6d415b85acef81000000008381611e8557611e846134a9565b5b0492506020810190505b662386f26fc100008310611ebe57662386f26fc100008381611eb457611eb36134a9565b5b0492506010810190505b6305f5e1008310611ee7576305f5e1008381611edd57611edc6134a9565b5b0492506008810190505b6127108310611f0c576127108381611f0257611f016134a9565b5b0492506004810190505b60648310611f2f5760648381611f2557611f246134a9565b5b0492506002810190505b600a8310611f3e576001810190505b80915050919050565b600073ffffffffffffffffffffffffffffffffffffffff168273ffffffffffffffffffffffffffffffffffffffff1603611fb6576040517f08c379a0000000000000000000000000000000000000000000000000000000008152600401611fad9061366f565b60405180910390fd5b611fbf81611635565b15611fff576040517f08c379a0000000000000000000000000000000000000000000000000000000008152600401611ff6906136db565b60405180910390fd5b61200d600083836001611ae6565b61201681611635565b15612056576040517f08c379a000000000000000000000000000000000000000000000000000000000815260040161204d906136db565b60405180910390fd5b6001600360008473ffffffffffffffffffffffffffffffffffffffff1673ffffffffffffffffffffffffffffffffffffffff16815260200190815260200160002060008282540192505081905550816002600083815260200190815260200160002060006101000a81548173ffffffffffffffffffffffffffffffffffffffff021916908373ffffffffffffffffffffffffffffffffffffffff160217905550808273ffffffffffffffffffffffffffffffffffffffff16600073ffffffffffffffffffffffffffffffffffffffff167fddf252ad1be2c89b69c2b068fc378daa952ba7f163c4a11628f55a4df523b3ef60405160405180910390a4612160600083836001611c0c565b5050565b6000808273ffffffffffffffffffffffffffffffffffffffff163b119050919050565b6040518060a0016040528060608152602001600081526020016000815260200160608152602001600081525090565b6000604051905090565b600080fd5b600080fd5b60007fffffffff0000000000000000000000000000000000000000000000000000000082169050919050565b6121ff816121ca565b811461220a57600080fd5b50565b60008135905061221c816121f6565b92915050565b600060208284031215612238576122376121c0565b5b60006122468482850161220d565b91505092915050565b60008115159050919050565b6122648161224f565b82525050565b600060208201905061227f600083018461225b565b92915050565b600081519050919050565b600082825260208201905092915050565b60005b838110156122bf5780820151818401526020810190506122a4565b60008484015250505050565b6000601f19601f8301169050919050565b60006122e782612285565b6122f18185612290565b93506123018185602086016122a1565b61230a816122cb565b840191505092915050565b6000602082019050818103600083015261232f81846122dc565b905092915050565b6000819050919050565b61234a81612337565b811461235557600080fd5b50565b60008135905061236781612341565b92915050565b600060208284031215612383576123826121c0565b5b600061239184828501612358565b91505092915050565b600073ffffffffffffffffffffffffffffffffffffffff82169050919050565b60006123c58261239a565b9050919050565b6123d5816123ba565b82525050565b60006020820190506123f060008301846123cc565b92915050565b6123ff816123ba565b811461240a57600080fd5b50565b60008135905061241c816123f6565b92915050565b60008060408385031215612439576124386121c0565b5b60006124478582860161240d565b925050602061245885828601612358565b9150509250929050565b60008060006060848603121561247b5761247a6121c0565b5b60006124898682870161240d565b935050602061249a8682870161240d565b92505060406124ab86828701612358565b9150509250925092565b600082825260208201905092915050565b60006124d182612285565b6124db81856124b5565b93506124eb8185602086016122a1565b6124f4816122cb565b840191505092915050565b61250881612337565b82525050565b600060a083016000830151848203600086015261252b82826124c6565b915050602083015161254060208601826124ff565b50604083015161255360408601826124ff565b506060830151848203606086015261256b82826124c6565b915050608083015161258060808601826124ff565b508091505092915050565b600060208201905081810360008301526125a5818461250e565b905092915050565b600080fd5b600080fd5b7f4e487b7100000000000000000000000000000000000000000000000000000000600052604160045260246000fd5b6125ef826122cb565b810181811067ffffffffffffffff8211171561260e5761260d6125b7565b5b80604052505050565b60006126216121b6565b905061262d82826125e6565b919050565b600067ffffffffffffffff82111561264d5761264c6125b7565b5b612656826122cb565b9050602081019050919050565b82818337600083830152505050565b600061268561268084612632565b612617565b9050828152602081018484840111156126a1576126a06125b2565b5b6126ac848285612663565b509392505050565b600082601f8301126126c9576126c86125ad565b5b81356126d9848260208601612672565b91505092915050565b600080600080600060a086880312156126fe576126fd6121c0565b5b600086013567ffffffffffffffff81111561271c5761271b6121c5565b5b612728888289016126b4565b955050602061273988828901612358565b945050604061274a88828901612358565b935050606086013567ffffffffffffffff81111561276b5761276a6121c5565b5b612777888289016126b4565b925050608061278888828901612358565b9150509295509295909350565b6000602082840312156127ab576127aa6121c0565b5b60006127b98482850161240d565b91505092915050565b6127cb81612337565b82525050565b60006020820190506127e660008301846127c2565b92915050565b6127f58161224f565b811461280057600080fd5b50565b600081359050612812816127ec565b92915050565b6000806040838503121561282f5761282e6121c0565b5b600061283d8582860161240d565b925050602061284e85828601612803565b9150509250929050565b600067ffffffffffffffff821115612873576128726125b7565b5b61287c826122cb565b9050602081019050919050565b600061289c61289784612858565b612617565b9050828152602081018484840111156128b8576128b76125b2565b5b6128c3848285612663565b509392505050565b600082601f8301126128e0576128df6125ad565b5b81356128f0848260208601612889565b91505092915050565b60008060008060808587031215612913576129126121c0565b5b60006129218782880161240d565b94505060206129328782880161240d565b935050604061294387828801612358565b925050606085013567ffffffffffffffff811115612964576129636121c5565b5b612970878288016128cb565b91505092959194509250565b60008060408385031215612993576129926121c0565b5b60006129a18582860161240d565b92505060206129b28582860161240d565b9150509250929050565b7f4e487b7100000000000000000000000000000000000000000000000000000000600052602260045260246000fd5b60006002820490506001821680612a0357607f821691505b602082108103612a1657612a156129bc565b5b50919050565b7f4552433732313a20617070726f76616c20746f2063757272656e74206f776e6560008201527f7200000000000000000000000000000000000000000000000000000000000000602082015250565b6000612a78602183612290565b9150612a8382612a1c565b604082019050919050565b60006020820190508181036000830152612aa781612a6b565b9050919050565b7f4552433732313a20617070726f76652063616c6c6572206973206e6f7420746f60008201527f6b656e206f776e6572206f7220617070726f76656420666f7220616c6c000000602082015250565b6000612b0a603d83612290565b9150612b1582612aae565b604082019050919050565b60006020820190508181036000830152612b3981612afd565b9050919050565b7f4552433732313a2063616c6c6572206973206e6f7420746f6b656e206f776e6560008201527f72206f7220617070726f76656400000000000000000000000000000000000000602082015250565b6000612b9c602d83612290565b9150612ba782612b40565b604082019050919050565b60006020820190508181036000830152612bcb81612b8f565b9050919050565b7f4f6e6c7920636f6e7472616374206f776e65722063616e20776974686472617760008201527f2066756e64730000000000000000000000000000000000000000000000000000602082015250565b6000612c2e602683612290565b9150612c3982612bd2565b604082019050919050565b60006020820190508181036000830152612c5d81612c21565b9050919050565b7f4e465420646f6573206e6f742065786973740000000000000000000000000000600082015250565b6000612c9a601283612290565b9150612ca582612c64565b602082019050919050565b60006020820190508181036000830152612cc981612c8d565b9050919050565b7f4e487b7100000000000000000000000000000000000000000000000000000000600052601160045260246000fd5b6000612d0a82612337565b9150612d1583612337565b9250828202612d2381612337565b91508282048414831517612d3a57612d39612cd0565b5b5092915050565b7f6574686572206973206e6f7420656e6f75676800000000000000000000000000600082015250565b6000612d77601383612290565b9150612d8282612d41565b602082019050919050565b60006020820190508181036000830152612da681612d6a565b9050919050565b60008190508160005260206000209050919050565b60006020601f8301049050919050565b600082821b905092915050565b600060088302612e0f7fffffffffffffffffffffffffffffffffffffffffffffffffffffffffffffffff82612dd2565b612e198683612dd2565b95508019841693508086168417925050509392505050565b6000819050919050565b6000612e56612e51612e4c84612337565b612e31565b612337565b9050919050565b6000819050919050565b612e7083612e3b565b612e84612e7c82612e5d565b848454612ddf565b825550505050565b600090565b612e99612e8c565b612ea4818484612e67565b505050565b5b81811015612ec857612ebd600082612e91565b600181019050612eaa565b5050565b601f821115612f0d57612ede81612dad565b612ee784612dc2565b81016020851015612ef6578190505b612f0a612f0285612dc2565b830182612ea9565b50505b505050565b600082821c905092915050565b6000612f3060001984600802612f12565b1980831691505092915050565b6000612f498383612f1f565b9150826002028217905092915050565b612f6282612285565b67ffffffffffffffff811115612f7b57612f7a6125b7565b5b612f8582546129eb565b612f90828285612ecc565b600060209050601f831160018114612fc35760008415612fb1578287015190505b612fbb8582612f3d565b865550613023565b601f198416612fd186612dad565b60005b82811015612ff957848901518255600182019150602085019450602081019050612fd4565b868310156130165784890151613012601f891682612f1f565b8355505b6001600288020188555050505b505050505050565b7f4552433732313a20696e76616c696420746f6b656e2049440000000000000000600082015250565b6000613061601883612290565b915061306c8261302b565b602082019050919050565b6000602082019050818103600083015261309081613054565b9050919050565b7f4552433732313a2061646472657373207a65726f206973206e6f74206120766160008201527f6c6964206f776e65720000000000000000000000000000000000000000000000602082015250565b60006130f3602983612290565b91506130fe82613097565b604082019050919050565b60006020820190508181036000830152613122816130e6565b9050919050565b600081905092915050565b600061313f82612285565b6131498185613129565b93506131598185602086016122a1565b80840191505092915050565b60006131718285613134565b915061317d8284613134565b91508190509392505050565b7f4f776e61626c653a206e6577206f776e657220697320746865207a65726f206160008201527f6464726573730000000000000000000000000000000000000000000000000000602082015250565b60006131e5602683612290565b91506131f082613189565b604082019050919050565b60006020820190508181036000830152613214816131d8565b9050919050565b7f4552433732313a207472616e736665722066726f6d20696e636f72726563742060008201527f6f776e6572000000000000000000000000000000000000000000000000000000602082015250565b6000613277602583612290565b91506132828261321b565b604082019050919050565b600060208201905081810360008301526132a68161326a565b9050919050565b7f4552433732313a207472616e7366657220746f20746865207a65726f2061646460008201527f7265737300000000000000000000000000000000000000000000000000000000602082015250565b6000613309602483612290565b9150613314826132ad565b604082019050919050565b60006020820190508181036000830152613338816132fc565b9050919050565b7f4f776e61626c653a2063616c6c6572206973206e6f7420746865206f776e6572600082015250565b6000613375602083612290565b91506133808261333f565b602082019050919050565b600060208201905081810360008301526133a481613368565b9050919050565b7f4552433732313a20617070726f766520746f2063616c6c657200000000000000600082015250565b60006133e1601983612290565b91506133ec826133ab565b602082019050919050565b60006020820190508181036000830152613410816133d4565b9050919050565b7f4552433732313a207472616e7366657220746f206e6f6e20455243373231526560008201527f63656976657220696d706c656d656e7465720000000000000000000000000000602082015250565b6000613473603283612290565b915061347e82613417565b604082019050919050565b600060208201905081810360008301526134a281613466565b9050919050565b7f4e487b7100000000000000000000000000000000000000000000000000000000600052601260045260246000fd5b60006134e382612337565b91506134ee83612337565b925082820390508181111561350657613505612cd0565b5b92915050565b600061351782612337565b915061352283612337565b925082820190508082111561353a57613539612cd0565b5b92915050565b600081519050919050565b600082825260208201905092915050565b600061356782613540565b613571818561354b565b93506135818185602086016122a1565b61358a816122cb565b840191505092915050565b60006080820190506135aa60008301876123cc565b6135b760208301866123cc565b6135c460408301856127c2565b81810360608301526135d6818461355c565b905095945050505050565b6000815190506135f0816121f6565b92915050565b60006020828403121561360c5761360b6121c0565b5b600061361a848285016135e1565b91505092915050565b7f4552433732313a206d696e7420746f20746865207a65726f2061646472657373600082015250565b6000613659602083612290565b915061366482613623565b602082019050919050565b600060208201905081810360008301526136888161364c565b9050919050565b7f4552433732313a20746f6b656e20616c7265616479206d696e74656400000000600082015250565b60006136c5601c83612290565b91506136d08261368f565b602082019050919050565b600060208201905081810360008301526136f4816136b8565b905091905056fea26469706673582212203f1d617a66b066aa113633465407e7502dd3ebe90c5f95c12e0be10fce331e2064736f6c63430008110033",
  "linkReferences": {},
  "deployedLinkReferences": {}
}