{
  "contractName": "Ticket",
  "abi": [
    {
      "inputs": [],
      "stateMutability": "nonpayable",
      "type": "constructor"
    },
    {
      "anonymous": false,
      "inputs": [
        {
          "indexed": true,
          "internalType": "address",
          "name": "owner",
          "type": "address"
        },
        {
          "indexed": true,
          "internalType": "address",
          "name": "approved",
          "type": "address"
        },
        {
          "indexed": true,
          "internalType": "uint256",
          "name": "tokenId",
          "type": "uint256"
        }
      ],
      "name": "Approval",
      "type": "event"
    },
    {
      "anonymous": false,
      "inputs": [
        {
          "indexed": true,
          "internalType": "address",
          "name": "owner",
          "type": "address"
        },
        {
          "indexed": true,
          "internalType": "address",
          "name": "operator",
          "type": "address"
        },
        {
          "indexed": false,
          "internalType": "bool",
          "name": "approved",
          "type": "bool"
        }
      ],
      "name": "ApprovalForAll",
      "type": "event"
    },
    {
      "anonymous": false,
      "inputs": [
        {
          "indexed": true,
          "internalType": "address",
          "name": "previousOwner",
          "type": "address"
        },
        {
          "indexed": true,
          "internalType": "address",
          "name": "newOwner",
          "type": "address"
        }
      ],
      "name": "OwnershipTransferred",
      "type": "event"
    },
    {
      "anonymous": false,
      "inputs": [
        {
          "indexed": true,
          "internalType": "address",
          "name": "from",
          "type": "address"
        },
        {
          "indexed": true,
          "internalType": "address",
          "name": "to",
          "type": "address"
        },
        {
          "indexed": true,
          "internalType": "uint256",
          "name": "tokenId",
          "type": "uint256"
        }
      ],
      "name": "Transfer",
      "type": "event"
    },
    {
      "anonymous": false,
      "inputs": [
        {
          "indexed": false,
          "internalType": "uint256",
          "name": "eventId",
          "type": "uint256"
        },
        {
          "indexed": false,
          "internalType": "uint256",
          "name": "quantity",
          "type": "uint256"
        }
      ],
      "name": "ticketBuysuccessfully",
      "type": "event"
    },
    {
      "inputs": [
        {
          "internalType": "address",
          "name": "to",
          "type": "address"
        },
        {
          "internalType": "uint256",
          "name": "tokenId",
          "type": "uint256"
        }
      ],
      "name": "approve",
      "outputs": [],
      "stateMutability": "nonpayable",
      "type": "function"
    },
    {
      "inputs": [
        {
          "internalType": "address",
          "name": "owner",
          "type": "address"
        }
      ],
      "name": "balanceOf",
      "outputs": [
        {
          "internalType": "uint256",
          "name": "",
          "type": "uint256"
        }
      ],
      "stateMutability": "view",
      "type": "function",
      "constant": true
    },
    {
      "inputs": [
        {
          "internalType": "uint256",
          "name": "tokenId",
          "type": "uint256"
        }
      ],
      "name": "getApproved",
      "outputs": [
        {
          "internalType": "address",
          "name": "",
          "type": "address"
        }
      ],
      "stateMutability": "view",
      "type": "function",
      "constant": true
    },
    {
      "inputs": [
        {
          "internalType": "address",
          "name": "owner",
          "type": "address"
        },
        {
          "internalType": "address",
          "name": "operator",
          "type": "address"
        }
      ],
      "name": "isApprovedForAll",
      "outputs": [
        {
          "internalType": "bool",
          "name": "",
          "type": "bool"
        }
      ],
      "stateMutability": "view",
      "type": "function",
      "constant": true
    },
    {
      "inputs": [],
      "name": "name",
      "outputs": [
        {
          "internalType": "string",
          "name": "",
          "type": "string"
        }
      ],
      "stateMutability": "view",
      "type": "function",
      "constant": true
    },
    {
      "inputs": [],
      "name": "owner",
      "outputs": [
        {
          "internalType": "address",
          "name": "",
          "type": "address"
        }
      ],
      "stateMutability": "view",
      "type": "function",
      "constant": true
    },
    {
      "inputs": [
        {
          "internalType": "uint256",
          "name": "tokenId",
          "type": "uint256"
        }
      ],
      "name": "ownerOf",
      "outputs": [
        {
          "internalType": "address",
          "name": "",
          "type": "address"
        }
      ],
      "stateMutability": "view",
      "type": "function",
      "constant": true
    },
    {
      "inputs": [],
      "name": "renounceOwnership",
      "outputs": [],
      "stateMutability": "nonpayable",
      "type": "function"
    },
    {
      "inputs": [
        {
          "internalType": "address",
          "name": "from",
          "type": "address"
        },
        {
          "internalType": "address",
          "name": "to",
          "type": "address"
        },
        {
          "internalType": "uint256",
          "name": "tokenId",
          "type": "uint256"
        }
      ],
      "name": "safeTransferFrom",
      "outputs": [],
      "stateMutability": "nonpayable",
      "type": "function"
    },
    {
      "inputs": [
        {
          "internalType": "address",
          "name": "from",
          "type": "address"
        },
        {
          "internalType": "address",
          "name": "to",
          "type": "address"
        },
        {
          "internalType": "uint256",
          "name": "tokenId",
          "type": "uint256"
        },
        {
          "internalType": "bytes",
          "name": "data",
          "type": "bytes"
        }
      ],
      "name": "safeTransferFrom",
      "outputs": [],
      "stateMutability": "nonpayable",
      "type": "function"
    },
    {
      "inputs": [
        {
          "internalType": "address",
          "name": "operator",
          "type": "address"
        },
        {
          "internalType": "bool",
          "name": "approved",
          "type": "bool"
        }
      ],
      "name": "setApprovalForAll",
      "outputs": [],
      "stateMutability": "nonpayable",
      "type": "function"
    },
    {
      "inputs": [
        {
          "internalType": "bytes4",
          "name": "interfaceId",
          "type": "bytes4"
        }
      ],
      "name": "supportsInterface",
      "outputs": [
        {
          "internalType": "bool",
          "name": "",
          "type": "bool"
        }
      ],
      "stateMutability": "view",
      "type": "function",
      "constant": true
    },
    {
      "inputs": [],
      "name": "symbol",
      "outputs": [
        {
          "internalType": "string",
          "name": "",
          "type": "string"
        }
      ],
      "stateMutability": "view",
      "type": "function",
      "constant": true
    },
    {
      "inputs": [
        {
          "internalType": "address",
          "name": "",
          "type": "address"
        }
      ],
      "name": "ticketQuantity",
      "outputs": [
        {
          "internalType": "uint256",
          "name": "",
          "type": "uint256"
        }
      ],
      "stateMutability": "view",
      "type": "function",
      "constant": true
    },
    {
      "inputs": [
        {
          "internalType": "uint256",
          "name": "tokenId",
          "type": "uint256"
        }
      ],
      "name": "tokenURI",
      "outputs": [
        {
          "internalType": "string",
          "name": "",
          "type": "string"
        }
      ],
      "stateMutability": "view",
      "type": "function",
      "constant": true
    },
    {
      "inputs": [],
      "name": "totalTicketSold",
      "outputs": [
        {
          "internalType": "uint256",
          "name": "",
          "type": "uint256"
        }
      ],
      "stateMutability": "view",
      "type": "function",
      "constant": true
    },
    {
      "inputs": [
        {
          "internalType": "address",
          "name": "from",
          "type": "address"
        },
        {
          "internalType": "address",
          "name": "to",
          "type": "address"
        },
        {
          "internalType": "uint256",
          "name": "tokenId",
          "type": "uint256"
        }
      ],
      "name": "transferFrom",
      "outputs": [],
      "stateMutability": "nonpayable",
      "type": "function"
    },
    {
      "inputs": [
        {
          "internalType": "address",
          "name": "newOwner",
          "type": "address"
        }
      ],
      "name": "transferOwnership",
      "outputs": [],
      "stateMutability": "nonpayable",
      "type": "function"
    },
    {
      "inputs": [
        {
          "internalType": "address",
          "name": "",
          "type": "address"
        }
      ],
      "name": "userDetails",
      "outputs": [
        {
          "internalType": "uint256",
          "name": "",
          "type": "uint256"
        }
      ],
      "stateMutability": "view",
      "type": "function",
      "constant": true
    },
    {
      "inputs": [
        {
          "internalType": "uint256",
          "name": "price",
          "type": "uint256"
        },
        {
          "internalType": "uint256",
          "name": "quantity",
          "type": "uint256"
        },
        {
          "internalType": "uint256",
          "name": "eventId",
          "type": "uint256"
        }
      ],
      "name": "buyNFT",
      "outputs": [],
      "stateMutability": "payable",
      "type": "function",
      "payable": true
    },
    {
      "inputs": [],
      "name": "withdrawl",
      "outputs": [],
      "stateMutability": "nonpayable",
      "type": "function"
    },
    {
      "inputs": [
        {
          "internalType": "address",
          "name": "account",
          "type": "address"
        }
      ],
      "name": "getUserDetails",
      "outputs": [
        {
          "internalType": "uint256",
          "name": "",
          "type": "uint256"
        }
      ],
      "stateMutability": "view",
      "type": "function",
      "constant": true
    }
  ],
  "bytecode": "0x60806040523480156200001157600080fd5b506040518060400160405280600681526020017f5469636b657400000000000000000000000000000000000000000000000000008152506040518060400160405280600281526020017f544b000000000000000000000000000000000000000000000000000000000000815250816000908051906020019062000096929190620001a6565b508060019080519060200190620000af929190620001a6565b505050620000d2620000c6620000d860201b60201c565b620000e060201b60201c565b620002ba565b600033905090565b6000600660009054906101000a900473ffffffffffffffffffffffffffffffffffffffff16905081600660006101000a81548173ffffffffffffffffffffffffffffffffffffffff021916908373ffffffffffffffffffffffffffffffffffffffff1602179055508173ffffffffffffffffffffffffffffffffffffffff168173ffffffffffffffffffffffffffffffffffffffff167f8be0079c531659141344cd1fd0a4f28419497f9722a3daafe3b4186f6b6457e060405160405180910390a35050565b828054620001b49062000285565b90600052602060002090601f016020900481019282620001d8576000855562000224565b82601f10620001f357805160ff191683800117855562000224565b8280016001018555821562000224579182015b828111156200022357825182559160200191906001019062000206565b5b50905062000233919062000237565b5090565b5b808211156200025257600081600090555060010162000238565b5090565b7f4e487b7100000000000000000000000000000000000000000000000000000000600052602260045260246000fd5b600060028204905060018216806200029e57607f821691505b602082108103620002b457620002b362000256565b5b50919050565b61308080620002ca6000396000f3fe6080604052600436106101355760003560e01c8063715018a6116100ab578063c87b56dd1161006f578063c87b56dd14610424578063cc3d967b14610461578063e4b70b421461049e578063e985e9c5146104ba578063f2fde38b146104f7578063faf04f791461052057610135565b8063715018a6146103655780638da5cb5b1461037c57806395d89b41146103a7578063a22cb465146103d2578063b88d4fde146103fb57610135565b806323b872dd116100fd57806323b872dd146102455780633aedfb8b1461026e57806342842e0e1461028557806348dec2a7146102ae5780636352211e146102eb57806370a082311461032857610135565b806301ffc9a71461013a57806306fdde0314610177578063081812fc146101a2578063095ea7b3146101df5780631c6a159114610208575b600080fd5b34801561014657600080fd5b50610161600480360381019061015c9190611fe8565b61054b565b60405161016e9190612030565b60405180910390f35b34801561018357600080fd5b5061018c61062d565b60405161019991906120e4565b60405180910390f35b3480156101ae57600080fd5b506101c960048036038101906101c4919061213c565b6106bf565b6040516101d691906121aa565b60405180910390f35b3480156101eb57600080fd5b50610206600480360381019061020191906121f1565b610705565b005b34801561021457600080fd5b5061022f600480360381019061022a9190612231565b61081c565b60405161023c919061226d565b60405180910390f35b34801561025157600080fd5b5061026c60048036038101906102679190612288565b610834565b005b34801561027a57600080fd5b50610283610894565b005b34801561029157600080fd5b506102ac60048036038101906102a79190612288565b610952565b005b3480156102ba57600080fd5b506102d560048036038101906102d09190612231565b610972565b6040516102e2919061226d565b60405180910390f35b3480156102f757600080fd5b50610312600480360381019061030d919061213c565b61098a565b60405161031f91906121aa565b60405180910390f35b34801561033457600080fd5b5061034f600480360381019061034a9190612231565b610a10565b60405161035c919061226d565b60405180910390f35b34801561037157600080fd5b5061037a610ac7565b005b34801561038857600080fd5b50610391610adb565b60405161039e91906121aa565b60405180910390f35b3480156103b357600080fd5b506103bc610b05565b6040516103c991906120e4565b60405180910390f35b3480156103de57600080fd5b506103f960048036038101906103f49190612307565b610b97565b005b34801561040757600080fd5b50610422600480360381019061041d919061247c565b610bad565b005b34801561043057600080fd5b5061044b6004803603810190610446919061213c565b610c0f565b60405161045891906120e4565b60405180910390f35b34801561046d57600080fd5b5061048860048036038101906104839190612231565b610c77565b604051610495919061226d565b60405180910390f35b6104b860048036038101906104b391906124ff565b610cc0565b005b3480156104c657600080fd5b506104e160048036038101906104dc9190612552565b610e09565b6040516104ee9190612030565b60405180910390f35b34801561050357600080fd5b5061051e60048036038101906105199190612231565b610e9d565b005b34801561052c57600080fd5b50610535610f20565b604051610542919061226d565b60405180910390f35b60007f80ac58cd000000000000000000000000000000000000000000000000000000007bffffffffffffffffffffffffffffffffffffffffffffffffffffffff1916827bffffffffffffffffffffffffffffffffffffffffffffffffffffffff1916148061061657507f5b5e139f000000000000000000000000000000000000000000000000000000007bffffffffffffffffffffffffffffffffffffffffffffffffffffffff1916827bffffffffffffffffffffffffffffffffffffffffffffffffffffffff1916145b80610626575061062582610f26565b5b9050919050565b60606000805461063c906125c1565b80601f0160208091040260200160405190810160405280929190818152602001828054610668906125c1565b80156106b55780601f1061068a576101008083540402835291602001916106b5565b820191906000526020600020905b81548152906001019060200180831161069857829003601f168201915b5050505050905090565b60006106ca82610f90565b6004600083815260200190815260200160002060009054906101000a900473ffffffffffffffffffffffffffffffffffffffff169050919050565b60006107108261098a565b90508073ffffffffffffffffffffffffffffffffffffffff168373ffffffffffffffffffffffffffffffffffffffff1603610780576040517f08c379a000000000000000000000000000000000000000000000000000000000815260040161077790612664565b60405180910390fd5b8073ffffffffffffffffffffffffffffffffffffffff1661079f610fdb565b73ffffffffffffffffffffffffffffffffffffffff1614806107ce57506107cd816107c8610fdb565b610e09565b5b61080d576040517f08c379a0000000000000000000000000000000000000000000000000000000008152600401610804906126f6565b60405180910390fd5b6108178383610fe3565b505050565b60096020528060005260406000206000915090505481565b61084561083f610fdb565b8261109c565b610884576040517f08c379a000000000000000000000000000000000000000000000000000000000815260040161087b90612788565b60405180910390fd5b61088f838383611131565b505050565b61089c610adb565b73ffffffffffffffffffffffffffffffffffffffff163373ffffffffffffffffffffffffffffffffffffffff1614610909576040517f08c379a00000000000000000000000000000000000000000000000000000000081526004016109009061281a565b60405180910390fd5b3373ffffffffffffffffffffffffffffffffffffffff166108fc479081150290604051600060405180830381858888f1935050505015801561094f573d6000803e3d6000fd5b50565b61096d83838360405180602001604052806000815250610bad565b505050565b60086020528060005260406000206000915090505481565b6000806109968361142a565b9050600073ffffffffffffffffffffffffffffffffffffffff168173ffffffffffffffffffffffffffffffffffffffff1603610a07576040517f08c379a00000000000000000000000000000000000000000000000000000000081526004016109fe90612886565b60405180910390fd5b80915050919050565b60008073ffffffffffffffffffffffffffffffffffffffff168273ffffffffffffffffffffffffffffffffffffffff1603610a80576040517f08c379a0000000000000000000000000000000000000000000000000000000008152600401610a7790612918565b60405180910390fd5b600360008373ffffffffffffffffffffffffffffffffffffffff1673ffffffffffffffffffffffffffffffffffffffff168152602001908152602001600020549050919050565b610acf611467565b610ad960006114e5565b565b6000600660009054906101000a900473ffffffffffffffffffffffffffffffffffffffff16905090565b606060018054610b14906125c1565b80601f0160208091040260200160405190810160405280929190818152602001828054610b40906125c1565b8015610b8d5780601f10610b6257610100808354040283529160200191610b8d565b820191906000526020600020905b815481529060010190602001808311610b7057829003601f168201915b5050505050905090565b610ba9610ba2610fdb565b83836115ab565b5050565b610bbe610bb8610fdb565b8361109c565b610bfd576040517f08c379a0000000000000000000000000000000000000000000000000000000008152600401610bf490612788565b60405180910390fd5b610c0984848484611717565b50505050565b6060610c1a82610f90565b6000610c24611773565b90506000815111610c445760405180602001604052806000815250610c6f565b80610c4e8461178a565b604051602001610c5f929190612974565b6040516020818303038152906040525b915050919050565b6000600860008373ffffffffffffffffffffffffffffffffffffffff1673ffffffffffffffffffffffffffffffffffffffff168152602001908152602001600020549050919050565b670de0b6b3a76400008284610cd591906129c7565b610cdf91906129c7565b3414610d20576040517f08c379a0000000000000000000000000000000000000000000000000000000008152600401610d1790612a6d565b60405180910390fd5b6000610d2c6007611858565b9050610d386007611866565b610d42338261187c565b81600860003373ffffffffffffffffffffffffffffffffffffffff1673ffffffffffffffffffffffffffffffffffffffff1681526020019081526020016000208190555082600960003373ffffffffffffffffffffffffffffffffffffffff1673ffffffffffffffffffffffffffffffffffffffff168152602001908152602001600020819055507f67999e0be318729b73dda5ac5db6f1b42069becea561eee2d7c96010831db8ab8284604051610dfb929190612a8d565b60405180910390a150505050565b6000600560008473ffffffffffffffffffffffffffffffffffffffff1673ffffffffffffffffffffffffffffffffffffffff16815260200190815260200160002060008373ffffffffffffffffffffffffffffffffffffffff1673ffffffffffffffffffffffffffffffffffffffff16815260200190815260200160002060009054906101000a900460ff16905092915050565b610ea5611467565b600073ffffffffffffffffffffffffffffffffffffffff168173ffffffffffffffffffffffffffffffffffffffff1603610f14576040517f08c379a0000000000000000000000000000000000000000000000000000000008152600401610f0b90612b28565b60405180910390fd5b610f1d816114e5565b50565b600a5481565b60007f01ffc9a7000000000000000000000000000000000000000000000000000000007bffffffffffffffffffffffffffffffffffffffffffffffffffffffff1916827bffffffffffffffffffffffffffffffffffffffffffffffffffffffff1916149050919050565b610f998161189a565b610fd8576040517f08c379a0000000000000000000000000000000000000000000000000000000008152600401610fcf90612886565b60405180910390fd5b50565b600033905090565b816004600083815260200190815260200160002060006101000a81548173ffffffffffffffffffffffffffffffffffffffff021916908373ffffffffffffffffffffffffffffffffffffffff160217905550808273ffffffffffffffffffffffffffffffffffffffff166110568361098a565b73ffffffffffffffffffffffffffffffffffffffff167f8c5be1e5ebec7d5bd14f71427d1e84f3dd0314c0f7b2291e5b200ac8c7c3b92560405160405180910390a45050565b6000806110a88361098a565b90508073ffffffffffffffffffffffffffffffffffffffff168473ffffffffffffffffffffffffffffffffffffffff1614806110ea57506110e98185610e09565b5b8061112857508373ffffffffffffffffffffffffffffffffffffffff16611110846106bf565b73ffffffffffffffffffffffffffffffffffffffff16145b91505092915050565b8273ffffffffffffffffffffffffffffffffffffffff166111518261098a565b73ffffffffffffffffffffffffffffffffffffffff16146111a7576040517f08c379a000000000000000000000000000000000000000000000000000000000815260040161119e90612bba565b60405180910390fd5b600073ffffffffffffffffffffffffffffffffffffffff168273ffffffffffffffffffffffffffffffffffffffff1603611216576040517f08c379a000000000000000000000000000000000000000000000000000000000815260040161120d90612c4c565b60405180910390fd5b61122383838360016118db565b8273ffffffffffffffffffffffffffffffffffffffff166112438261098a565b73ffffffffffffffffffffffffffffffffffffffff1614611299576040517f08c379a000000000000000000000000000000000000000000000000000000000815260040161129090612bba565b60405180910390fd5b6004600082815260200190815260200160002060006101000a81549073ffffffffffffffffffffffffffffffffffffffff02191690556001600360008573ffffffffffffffffffffffffffffffffffffffff1673ffffffffffffffffffffffffffffffffffffffff168152602001908152602001600020600082825403925050819055506001600360008473ffffffffffffffffffffffffffffffffffffffff1673ffffffffffffffffffffffffffffffffffffffff16815260200190815260200160002060008282540192505081905550816002600083815260200190815260200160002060006101000a81548173ffffffffffffffffffffffffffffffffffffffff021916908373ffffffffffffffffffffffffffffffffffffffff160217905550808273ffffffffffffffffffffffffffffffffffffffff168473ffffffffffffffffffffffffffffffffffffffff167fddf252ad1be2c89b69c2b068fc378daa952ba7f163c4a11628f55a4df523b3ef60405160405180910390a46114258383836001611a01565b505050565b60006002600083815260200190815260200160002060009054906101000a900473ffffffffffffffffffffffffffffffffffffffff169050919050565b61146f610fdb565b73ffffffffffffffffffffffffffffffffffffffff1661148d610adb565b73ffffffffffffffffffffffffffffffffffffffff16146114e3576040517f08c379a00000000000000000000000000000000000000000000000000000000081526004016114da90612cb8565b60405180910390fd5b565b6000600660009054906101000a900473ffffffffffffffffffffffffffffffffffffffff16905081600660006101000a81548173ffffffffffffffffffffffffffffffffffffffff021916908373ffffffffffffffffffffffffffffffffffffffff1602179055508173ffffffffffffffffffffffffffffffffffffffff168173ffffffffffffffffffffffffffffffffffffffff167f8be0079c531659141344cd1fd0a4f28419497f9722a3daafe3b4186f6b6457e060405160405180910390a35050565b8173ffffffffffffffffffffffffffffffffffffffff168373ffffffffffffffffffffffffffffffffffffffff1603611619576040517f08c379a000000000000000000000000000000000000000000000000000000000815260040161161090612d24565b60405180910390fd5b80600560008573ffffffffffffffffffffffffffffffffffffffff1673ffffffffffffffffffffffffffffffffffffffff16815260200190815260200160002060008473ffffffffffffffffffffffffffffffffffffffff1673ffffffffffffffffffffffffffffffffffffffff16815260200190815260200160002060006101000a81548160ff0219169083151502179055508173ffffffffffffffffffffffffffffffffffffffff168373ffffffffffffffffffffffffffffffffffffffff167f17307eab39ab6107e8899845ad3d59bd9653f200f220920489ca2b5937696c318360405161170a9190612030565b60405180910390a3505050565b611722848484611131565b61172e84848484611a07565b61176d576040517f08c379a000000000000000000000000000000000000000000000000000000000815260040161176490612db6565b60405180910390fd5b50505050565b606060405180602001604052806000815250905090565b60606000600161179984611b8e565b01905060008167ffffffffffffffff8111156117b8576117b7612351565b5b6040519080825280601f01601f1916602001820160405280156117ea5781602001600182028036833780820191505090505b509050600082602001820190505b60011561184d578080600190039150507f3031323334353637383961626364656600000000000000000000000000000000600a86061a8153600a858161184157611840612dd6565b5b049450600085036117f8575b819350505050919050565b600081600001549050919050565b6001816000016000828254019250508190555050565b611896828260405180602001604052806000815250611ce1565b5050565b60008073ffffffffffffffffffffffffffffffffffffffff166118bc8361142a565b73ffffffffffffffffffffffffffffffffffffffff1614159050919050565b60018111156119fb57600073ffffffffffffffffffffffffffffffffffffffff168473ffffffffffffffffffffffffffffffffffffffff161461196f5780600360008673ffffffffffffffffffffffffffffffffffffffff1673ffffffffffffffffffffffffffffffffffffffff16815260200190815260200160002060008282546119679190612e05565b925050819055505b600073ffffffffffffffffffffffffffffffffffffffff168373ffffffffffffffffffffffffffffffffffffffff16146119fa5780600360008573ffffffffffffffffffffffffffffffffffffffff1673ffffffffffffffffffffffffffffffffffffffff16815260200190815260200160002060008282546119f29190612e39565b925050819055505b5b50505050565b50505050565b6000611a288473ffffffffffffffffffffffffffffffffffffffff16611d3c565b15611b81578373ffffffffffffffffffffffffffffffffffffffff1663150b7a02611a51610fdb565b8786866040518563ffffffff1660e01b8152600401611a739493929190612ee4565b6020604051808303816000875af1925050508015611aaf57506040513d601f19601f82011682018060405250810190611aac9190612f45565b60015b611b31573d8060008114611adf576040519150601f19603f3d011682016040523d82523d6000602084013e611ae4565b606091505b506000815103611b29576040517f08c379a0000000000000000000000000000000000000000000000000000000008152600401611b2090612db6565b60405180910390fd5b805181602001fd5b63150b7a0260e01b7bffffffffffffffffffffffffffffffffffffffffffffffffffffffff1916817bffffffffffffffffffffffffffffffffffffffffffffffffffffffff191614915050611b86565b600190505b949350505050565b600080600090507a184f03e93ff9f4daa797ed6e38ed64bf6a1f0100000000000000008310611bec577a184f03e93ff9f4daa797ed6e38ed64bf6a1f0100000000000000008381611be257611be1612dd6565b5b0492506040810190505b6d04ee2d6d415b85acef81000000008310611c29576d04ee2d6d415b85acef81000000008381611c1f57611c1e612dd6565b5b0492506020810190505b662386f26fc100008310611c5857662386f26fc100008381611c4e57611c4d612dd6565b5b0492506010810190505b6305f5e1008310611c81576305f5e1008381611c7757611c76612dd6565b5b0492506008810190505b6127108310611ca6576127108381611c9c57611c9b612dd6565b5b0492506004810190505b60648310611cc95760648381611cbf57611cbe612dd6565b5b0492506002810190505b600a8310611cd8576001810190505b80915050919050565b611ceb8383611d5f565b611cf86000848484611a07565b611d37576040517f08c379a0000000000000000000000000000000000000000000000000000000008152600401611d2e90612db6565b60405180910390fd5b505050565b6000808273ffffffffffffffffffffffffffffffffffffffff163b119050919050565b600073ffffffffffffffffffffffffffffffffffffffff168273ffffffffffffffffffffffffffffffffffffffff1603611dce576040517f08c379a0000000000000000000000000000000000000000000000000000000008152600401611dc590612fbe565b60405180910390fd5b611dd78161189a565b15611e17576040517f08c379a0000000000000000000000000000000000000000000000000000000008152600401611e0e9061302a565b60405180910390fd5b611e256000838360016118db565b611e2e8161189a565b15611e6e576040517f08c379a0000000000000000000000000000000000000000000000000000000008152600401611e659061302a565b60405180910390fd5b6001600360008473ffffffffffffffffffffffffffffffffffffffff1673ffffffffffffffffffffffffffffffffffffffff16815260200190815260200160002060008282540192505081905550816002600083815260200190815260200160002060006101000a81548173ffffffffffffffffffffffffffffffffffffffff021916908373ffffffffffffffffffffffffffffffffffffffff160217905550808273ffffffffffffffffffffffffffffffffffffffff16600073ffffffffffffffffffffffffffffffffffffffff167fddf252ad1be2c89b69c2b068fc378daa952ba7f163c4a11628f55a4df523b3ef60405160405180910390a4611f78600083836001611a01565b5050565b6000604051905090565b600080fd5b600080fd5b60007fffffffff0000000000000000000000000000000000000000000000000000000082169050919050565b611fc581611f90565b8114611fd057600080fd5b50565b600081359050611fe281611fbc565b92915050565b600060208284031215611ffe57611ffd611f86565b5b600061200c84828501611fd3565b91505092915050565b60008115159050919050565b61202a81612015565b82525050565b60006020820190506120456000830184612021565b92915050565b600081519050919050565b600082825260208201905092915050565b60005b8381101561208557808201518184015260208101905061206a565b83811115612094576000848401525b50505050565b6000601f19601f8301169050919050565b60006120b68261204b565b6120c08185612056565b93506120d0818560208601612067565b6120d98161209a565b840191505092915050565b600060208201905081810360008301526120fe81846120ab565b905092915050565b6000819050919050565b61211981612106565b811461212457600080fd5b50565b60008135905061213681612110565b92915050565b60006020828403121561215257612151611f86565b5b600061216084828501612127565b91505092915050565b600073ffffffffffffffffffffffffffffffffffffffff82169050919050565b600061219482612169565b9050919050565b6121a481612189565b82525050565b60006020820190506121bf600083018461219b565b92915050565b6121ce81612189565b81146121d957600080fd5b50565b6000813590506121eb816121c5565b92915050565b6000806040838503121561220857612207611f86565b5b6000612216858286016121dc565b925050602061222785828601612127565b9150509250929050565b60006020828403121561224757612246611f86565b5b6000612255848285016121dc565b91505092915050565b61226781612106565b82525050565b6000602082019050612282600083018461225e565b92915050565b6000806000606084860312156122a1576122a0611f86565b5b60006122af868287016121dc565b93505060206122c0868287016121dc565b92505060406122d186828701612127565b9150509250925092565b6122e481612015565b81146122ef57600080fd5b50565b600081359050612301816122db565b92915050565b6000806040838503121561231e5761231d611f86565b5b600061232c858286016121dc565b925050602061233d858286016122f2565b9150509250929050565b600080fd5b600080fd5b7f4e487b7100000000000000000000000000000000000000000000000000000000600052604160045260246000fd5b6123898261209a565b810181811067ffffffffffffffff821117156123a8576123a7612351565b5b80604052505050565b60006123bb611f7c565b90506123c78282612380565b919050565b600067ffffffffffffffff8211156123e7576123e6612351565b5b6123f08261209a565b9050602081019050919050565b82818337600083830152505050565b600061241f61241a846123cc565b6123b1565b90508281526020810184848401111561243b5761243a61234c565b5b6124468482856123fd565b509392505050565b600082601f83011261246357612462612347565b5b813561247384826020860161240c565b91505092915050565b6000806000806080858703121561249657612495611f86565b5b60006124a4878288016121dc565b94505060206124b5878288016121dc565b93505060406124c687828801612127565b925050606085013567ffffffffffffffff8111156124e7576124e6611f8b565b5b6124f38782880161244e565b91505092959194509250565b60008060006060848603121561251857612517611f86565b5b600061252686828701612127565b935050602061253786828701612127565b925050604061254886828701612127565b9150509250925092565b6000806040838503121561256957612568611f86565b5b6000612577858286016121dc565b9250506020612588858286016121dc565b9150509250929050565b7f4e487b7100000000000000000000000000000000000000000000000000000000600052602260045260246000fd5b600060028204905060018216806125d957607f821691505b6020821081036125ec576125eb612592565b5b50919050565b7f4552433732313a20617070726f76616c20746f2063757272656e74206f776e6560008201527f7200000000000000000000000000000000000000000000000000000000000000602082015250565b600061264e602183612056565b9150612659826125f2565b604082019050919050565b6000602082019050818103600083015261267d81612641565b9050919050565b7f4552433732313a20617070726f76652063616c6c6572206973206e6f7420746f60008201527f6b656e206f776e6572206f7220617070726f76656420666f7220616c6c000000602082015250565b60006126e0603d83612056565b91506126eb82612684565b604082019050919050565b6000602082019050818103600083015261270f816126d3565b9050919050565b7f4552433732313a2063616c6c6572206973206e6f7420746f6b656e206f776e6560008201527f72206f7220617070726f76656400000000000000000000000000000000000000602082015250565b6000612772602d83612056565b915061277d82612716565b604082019050919050565b600060208201905081810360008301526127a181612765565b9050919050565b7f4f6e6c7920636f6e7472616374206f776e65722063616e20776974686472617760008201527f2066756e64730000000000000000000000000000000000000000000000000000602082015250565b6000612804602683612056565b915061280f826127a8565b604082019050919050565b60006020820190508181036000830152612833816127f7565b9050919050565b7f4552433732313a20696e76616c696420746f6b656e2049440000000000000000600082015250565b6000612870601883612056565b915061287b8261283a565b602082019050919050565b6000602082019050818103600083015261289f81612863565b9050919050565b7f4552433732313a2061646472657373207a65726f206973206e6f74206120766160008201527f6c6964206f776e65720000000000000000000000000000000000000000000000602082015250565b6000612902602983612056565b915061290d826128a6565b604082019050919050565b60006020820190508181036000830152612931816128f5565b9050919050565b600081905092915050565b600061294e8261204b565b6129588185612938565b9350612968818560208601612067565b80840191505092915050565b60006129808285612943565b915061298c8284612943565b91508190509392505050565b7f4e487b7100000000000000000000000000000000000000000000000000000000600052601160045260246000fd5b60006129d282612106565b91506129dd83612106565b9250817fffffffffffffffffffffffffffffffffffffffffffffffffffffffffffffffff0483118215151615612a1657612a15612998565b5b828202905092915050565b7f6574686572206973206e6f7420656e6f75676800000000000000000000000000600082015250565b6000612a57601383612056565b9150612a6282612a21565b602082019050919050565b60006020820190508181036000830152612a8681612a4a565b9050919050565b6000604082019050612aa2600083018561225e565b612aaf602083018461225e565b9392505050565b7f4f776e61626c653a206e6577206f776e657220697320746865207a65726f206160008201527f6464726573730000000000000000000000000000000000000000000000000000602082015250565b6000612b12602683612056565b9150612b1d82612ab6565b604082019050919050565b60006020820190508181036000830152612b4181612b05565b9050919050565b7f4552433732313a207472616e736665722066726f6d20696e636f72726563742060008201527f6f776e6572000000000000000000000000000000000000000000000000000000602082015250565b6000612ba4602583612056565b9150612baf82612b48565b604082019050919050565b60006020820190508181036000830152612bd381612b97565b9050919050565b7f4552433732313a207472616e7366657220746f20746865207a65726f2061646460008201527f7265737300000000000000000000000000000000000000000000000000000000602082015250565b6000612c36602483612056565b9150612c4182612bda565b604082019050919050565b60006020820190508181036000830152612c6581612c29565b9050919050565b7f4f776e61626c653a2063616c6c6572206973206e6f7420746865206f776e6572600082015250565b6000612ca2602083612056565b9150612cad82612c6c565b602082019050919050565b60006020820190508181036000830152612cd181612c95565b9050919050565b7f4552433732313a20617070726f766520746f2063616c6c657200000000000000600082015250565b6000612d0e601983612056565b9150612d1982612cd8565b602082019050919050565b60006020820190508181036000830152612d3d81612d01565b9050919050565b7f4552433732313a207472616e7366657220746f206e6f6e20455243373231526560008201527f63656976657220696d706c656d656e7465720000000000000000000000000000602082015250565b6000612da0603283612056565b9150612dab82612d44565b604082019050919050565b60006020820190508181036000830152612dcf81612d93565b9050919050565b7f4e487b7100000000000000000000000000000000000000000000000000000000600052601260045260246000fd5b6000612e1082612106565b9150612e1b83612106565b925082821015612e2e57612e2d612998565b5b828203905092915050565b6000612e4482612106565b9150612e4f83612106565b9250827fffffffffffffffffffffffffffffffffffffffffffffffffffffffffffffffff03821115612e8457612e83612998565b5b828201905092915050565b600081519050919050565b600082825260208201905092915050565b6000612eb682612e8f565b612ec08185612e9a565b9350612ed0818560208601612067565b612ed98161209a565b840191505092915050565b6000608082019050612ef9600083018761219b565b612f06602083018661219b565b612f13604083018561225e565b8181036060830152612f258184612eab565b905095945050505050565b600081519050612f3f81611fbc565b92915050565b600060208284031215612f5b57612f5a611f86565b5b6000612f6984828501612f30565b91505092915050565b7f4552433732313a206d696e7420746f20746865207a65726f2061646472657373600082015250565b6000612fa8602083612056565b9150612fb382612f72565b602082019050919050565b60006020820190508181036000830152612fd781612f9b565b9050919050565b7f4552433732313a20746f6b656e20616c7265616479206d696e74656400000000600082015250565b6000613014601c83612056565b915061301f82612fde565b602082019050919050565b6000602082019050818103600083015261304381613007565b905091905056fea26469706673582212207bbc9c176b8a56b7df2a91720b8177c4cf106b8939d6ce8aa8c071c90137452164736f6c634300080d0033",
  "immutableReferences": {},
  "source": "// SPDX-License-Identifier: MIT\npragma solidity ^0.8.9;\n\nimport \"@openzeppelin/contracts/token/ERC721/ERC721.sol\";\nimport \"@openzeppelin/contracts/access/Ownable.sol\";\nimport \"@openzeppelin/contracts/utils/Counters.sol\";\n\ncontract Ticket is ERC721,Ownable{\n    using Counters for Counters.Counter;\n\n    Counters.Counter private _tokenIdCounter;\n    \n    mapping(address=>uint256) public userDetails;\n    mapping(address=>uint256) public ticketQuantity;\n    event ticketBuysuccessfully(uint256 eventId,uint256 quantity);\n    uint256 public totalTicketSold;\n\n    constructor() ERC721(\"Ticket\", \"TK\") {\n    }\n    \n    function buyNFT(uint256 price,uint256 quantity,uint256 eventId)public payable {\n        require(msg.value==price*quantity*1e18,\"ether is not enough\");\n         uint256 tokenId = _tokenIdCounter.current();\n        _tokenIdCounter.increment();\n        _safeMint(msg.sender,tokenId);\n        userDetails[msg.sender] = eventId;  \n        ticketQuantity[msg.sender] = quantity; \n        emit ticketBuysuccessfully(eventId, quantity);     \n    }\n\n    function withdrawl() external {\n        require(msg.sender == owner(),\"Only contract owner can withdraw funds\");\n        payable(msg.sender).transfer(address(this).balance);\n\n    }\n\n    function getUserDetails(address account) public view returns(uint256){\n        return userDetails[account];\n    }\n\n\n}",
  "sourcePath": "/home/neosoft/Documents/Truffle-proj/contracts/Ticket.sol",
  "compiler": {
    "name": "solc",
    "version": "0.8.13+commit.abaa5c0e.Emscripten.clang"
  },
  "schemaVersion": "3.4.12",
  "updatedAt": "2023-03-01T10:07:55.831Z",
  "networkType": "ethereum",
  "devdoc": {
    "kind": "dev",
    "methods": {
      "approve(address,uint256)": {
        "details": "See {IERC721-approve}."
      },
      "balanceOf(address)": {
        "details": "See {IERC721-balanceOf}."
      },
      "getApproved(uint256)": {
        "details": "See {IERC721-getApproved}."
      },
      "isApprovedForAll(address,address)": {
        "details": "See {IERC721-isApprovedForAll}."
      },
      "name()": {
        "details": "See {IERC721Metadata-name}."
      },
      "owner()": {
        "details": "Returns the address of the current owner."
      },
      "ownerOf(uint256)": {
        "details": "See {IERC721-ownerOf}."
      },
      "renounceOwnership()": {
        "details": "Leaves the contract without owner. It will not be possible to call `onlyOwner` functions anymore. Can only be called by the current owner. NOTE: Renouncing ownership will leave the contract without an owner, thereby removing any functionality that is only available to the owner."
      },
      "safeTransferFrom(address,address,uint256)": {
        "details": "See {IERC721-safeTransferFrom}."
      },
      "safeTransferFrom(address,address,uint256,bytes)": {
        "details": "See {IERC721-safeTransferFrom}."
      },
      "setApprovalForAll(address,bool)": {
        "details": "See {IERC721-setApprovalForAll}."
      },
      "supportsInterface(bytes4)": {
        "details": "See {IERC165-supportsInterface}."
      },
      "symbol()": {
        "details": "See {IERC721Metadata-symbol}."
      },
      "tokenURI(uint256)": {
        "details": "See {IERC721Metadata-tokenURI}."
      },
      "transferFrom(address,address,uint256)": {
        "details": "See {IERC721-transferFrom}."
      },
      "transferOwnership(address)": {
        "details": "Transfers ownership of the contract to a new account (`newOwner`). Can only be called by the current owner."
      }
    },
    "version": 1
  },
  "userdoc": {
    "kind": "user",
    "methods": {},
    "version": 1
  }
}